:020000040800F2
:10000000E00600201103000815030008170300088C
:10001000190300081B0300081D030008000000006E
:100020000000000000000000000000001F030008A6
:100030002103000800000000230300082503000836
:1000400027030008270300082703000827030008E8
:1000500027030008270300082703000827030008D8
:1000600027030008270300082703000827030008C8
:1000700027030008450D0008270300082703000890
:10008000490E00082703000827030008270300087B
:100090002703000827030008270300082703000898
:1000A0002703000827030008270300082703000888
:1000B00027030008A90900082703000827030008F0
:1000C0002703000827030008270300082703000868
:1000D0002703000827030008770800082703000803
:1000E0002703000827030008270300082703000848
:1000F0002703000827030008270300082703000838
:100100002703000827030008270300082703000827
:100110002703000827030008270300082703000817
:100120002703000827030008270300082703000807
:1001300000F002F800F047F80AA090E8000C8244B2
:100140008344AAF10107DA4501D100F03CF8AFF28F
:10015000090EBAE80F0013F0010F18BFFB1A43F0A5
:1001600001031847242D0000442D0000103A24BF3D
:1001700078C878C1FAD8520724BF30C830C144BF0C
:1001800004680C607047000000230024002500264E
:10019000103A28BF78C1FBD8520728BF30C148BFEA
:1001A0000B607047662902F02286002070471FB559
:1001B00001F0B0F904000020002101F001FFE0602F
:1001C0001FBD10B510BD01F0BDFA1146FFF7EFFFDE
:1001D00000F00EF801F0DBFA03B4FFF7F2FF03BC06
:1001E00000F068FA30BF72B662B680F308887047D4
:1001F0001FB54FF0000A00F087FB40F6B8303649D3
:1002000008804FF47A7000F0D7F864E03348007843
:10021000002860D0BAF1640F3BDD0020304908703F
:100220004FF0640A2F4908682F4902F09FFB2F49BD
:1002300008602C4948682C4902F098FB2B4948601B
:1002400028498868284902F091FB28498860886815
:1002500002F0FEFA04460D462449486802F0F8FA16
:1002600006460F462149086802F0F2FA80464246E7
:100270000B461FA0CDE90067CDE9024500F0E6FE80
:100280001FA000F0E3FE2048008840F001001E4956
:10029000088013480078D8B10AF1010000F0FF0A85
:1002A0001A4A11680F4A106802F0FEFA0D490860F8
:1002B000164A51680B4A506802F0F6FA094948603C
:1002C000124A9168074A906802F0EEFA0549886080
:1002D00000200249087099E7340800401D00002002
:1002E000000000202C0000200000C8422000002058
:1002F00025662020256620202566200D0A000000A6
:100300006F6B0D0A00000000000400406400002034
:1003100008480047FEE7FEE7FEE7FEE7FEE7FEE7E8
:10032000FEE7FEE7FEE7FEE703480449044A054B03
:100330007047000031010008E0000020E0060020C6
:10034000E0020020E00200204FF0E021096921F0E6
:1003500004014FF0E0221161C21700EB5272C2F3A8
:10036000C702234B1A701946097801EB4102C2EB10
:10037000C1114FF6FF7202EAC1011E4A1180704797
:1003800001461B4A12784A434FF0E0235A6100228B
:100390009A6101221A6100BF4FF0E022106900F05B
:1003A00001021AB100F48032002AF5D000224FF089
:1003B000E0231A619A61704701460E4A12884A4347
:1003C0004FF0E0235A6100229A6101221A6100BFB6
:1003D0004FF0E022106900F001021AB100F48032FF
:1003E000002AF5D000224FF0E0231A619A6170478D
:1003F0000200002004000020A34A0A400243A34B4D
:100400001A6070470146072323EA010212029F4B3C
:100410001B1D18684FF6FF0318409D4B18431043EF
:100420009A4B1B1D186070472DE9F041074688461E
:1004300014461D462846FFF7E5FFC5F1040007FAFC
:1004400000F60F20284100EA0800064306F00F06D8
:10045000E21704EBD2625211920002F1E022D2F8CC
:1004600000212146E31704EBD3635B11A4EB431C8B
:10047000012303FA0CF31A432046E31704EBD3637A
:100480005B119B0003F1E023C3F800218148005D6C
:1004900040EA06107F490855BDE8F08170B5044672
:1004A0000B46CE1701EB9676C6F38700CE1701EB0D
:1004B0009676B610A1EB8606B606350E764B9B698E
:1004C00043F00103744EB3614FEAB63353F8203062
:1004D0000F26AE40B343714E46F82030334653F8F2
:1004E000203004FA05F61E436C4B43F820606C4B39
:1004F0001B6801268E403343694E336002F00103CE
:1005000043B1674B0C331B6801268E403343644E66
:100510000C36336002F0020343B1614B08331E68AE
:1005200001238B401E435E4B08331E6070BD00B537
:10053000002059490861C860142048610020886182
:10054000C8610846006840F001000860084640683D
:1005500054490840504948600846006852490840DC
:100560004D4908600846006820F48020086008466D
:10057000406820F4FE0048600020886000214FF0B1
:100580000060FFF739FF00BD10B540480830006833
:1005900040F004003D49083108603F48C06940F020
:1005A00080503D49C8614148406840F480703F49EF
:1005B00048600846006840F004000860084600688B
:1005C00040F002000860FFF70DFE10BD3048001D2E
:1005D0002E49091D08607047014649062E4A926956
:1005E00042F001022C4B9A612C4A083A526822F0E0
:1005F00070622A4B083B5A601A4652680A435A6096
:10060000704730B504460025FFF791FF2248006887
:1006100040F480302049086000BF1F480068400C4B
:100620000028FAD04FF480601B494860A01EC4B275
:100630000846406840EA844048600846406840F404
:10064000803048601A48006840F03200184908605D
:100650001148006840F080700F49086000BF0E48E4
:100660000068400E0028FAD00B48406840F00200B5
:100670000949486005E008484068C0F3870505F06F
:100680000305022DF7D130BD80FFFF1F08ED00E00C
:100690000000FA0500E400E00010024008000140FC
:1006A000000401400000FFF8FFFFF6FE007000406C
:1006B00000200240014600BF704700BF894A1288EF
:1006C00002F04002002AF9D0C2B2864B1B1D1A80EC
:1006D00070472DE9F05F05460E46300102F028FA1A
:1006E0008146814905FB01F002F022FA8246494623
:1006F00002F03CF90746384602F0FAF984B2204687
:1007000002F016FA8346394602F0F2FA82464FF0BA
:10071000834102F021FA814602F0EAF980464FF661
:10072000FF7000EA041404EB080084B26F4880698B
:1007300040F004006D4988610846806940F48040BB
:1007400088616B48006820F47F606949086008464A
:10075000006840F40B6008606448C06840F4804062
:100760006249C8600846C06820F48040C8605D489F
:1007700008300480001D008842F20C0108435949EA
:100780000C310880BDE8F09F2DE9F05F05460E466C
:10079000300102F0CDF98146534905FB01F002F02A
:1007A000C7F98246494602F0E1F80746384602F0AA
:1007B0009FF984B2204602F0BBF98346394602F025
:1007C00097FA82464FF0834102F0C6F9814602F063
:1007D0008FF980464FF6FF7000EA041404EB08001E
:1007E00084B24248806940F004004049886108466C
:1007F000C06940F40030C8613D48001F006820F423
:100800007F403B49091F08600846006840F40B40E0
:1008100008603648006940F40030344908610846F1
:10082000006920F40030086132480480001D00880F
:1008300042F20C0108432F49091D08802D480C3055
:10084000008840F040002B490C3108802948001DE9
:10085000008840F480702749091D088008460088F8
:1008600040F0200008800223262203210846FFF7DB
:10087000DBFDBDE8F09F1F480838008800F020002D
:1008800078B31C480838008820F02000194908393E
:100890000880081D0088552803D1012016490870DA
:1008A0000EE01448001F0088512806D11248007835
:1008B00018B101201149087002E000200E490870AB
:1008C0000E48007868B10E48007850B100200C49FD
:1008D00008700A4908700B48C06E40F001000949D1
:1008E000C86670470038014040420F0000100240C7
:1008F00004080140084400400C0000200D000020C6
:100900001E0000200000024010B50920FFF779FE0C
:100910004820FFF719FD00F087F800F0B5F800F067
:1009200006F94FF4E1314820FFF7D3FE4FF4E131EF
:100930002420FFF729FF084A0849202000F0BFF9CA
:10094000132140F60F6000F00BF817214EF65F20E0
:1009500000F012F910BD00003800002004440040EF
:1009600070B505460C462948C06940F00200274989
:10097000C86127480580001F04802548203800886A
:1009800040F0010022492039088021482C38008895
:1009900040F080001E492C39088002231D220121CD
:1009A0000846FFF741FD70BD19481C38008800F06B
:1009B000010010B317480088401C164908800846FB
:1009C0000088B0F5FA7F0DDD13480068C043134975
:1009D000C1F8880100200F49088011480078401CA8
:1009E0000F4908700E480078082803DD41F288306E
:1009F0000C49088008200A49087005481C380088FE
:100A000020F0010002491C390880704700100240A4
:100A10002C0400400E0000208881224200802242E7
:100A200010000020340800404D48806940F010005C
:100A30004B4988614B48006820F470604949086060
:100A40000846006840F4407008600846C06840F0FE
:100A50000400C8604248806940F020004049886135
:100A60004148006820F470603F490860084600680B
:100A700040F4407008603C480C30006840F00400CE
:100A800039490C31086070473548806940F00400EE
:100A900033498861354800686FF30F0033490860B7
:100AA0000846006848F688010843304908602F4826
:100AB0000C30006840F002002C490C3108600846F8
:100AC000006840F0040008600846006840F0080034
:100AD0000860704710B52648006801280BD02448EC
:100AE000001D006838B122480830006818B120485D
:100AF0000C300068C8B90520FFF75EFC1C48006890
:100B0000012800D110BD1A48001D006808B9022054
:100B1000F8E717480830006808B90320F2E71448DE
:100B20000C30006808B90420ECE70020EAE70C4824
:100B3000806940F008000A4988610E48006820F08A
:100B40000F000C4908600846006840F00300086088
:100B500008480C30006807490C31086070470000F5
:100B60000010024000100140001401400008014044
:100B700000012142000C01402C4AD26942F00402DB
:100B80002A4BDA611A46926942F008029A61284AB1
:100B9000126822F07F42264B1A601A46126842F011
:100BA0003B421A601A1D126822F0FF021B1D1A60D8
:100BB0001A46126842F0BB021A601E4A1080121FC9
:100BC00011801C4A143A128842F06802194B143BF7
:100BD0001A801A46128842F4D0421A801A1D1288CE
:100BE00042F068021B1D1A801A46128842F4D04255
:100BF0001A801A1D128841F211131A430D4B0C3B37
:100C00001A8080220B4B2C3B1A801A46128842F025
:100C100001021A8041F29412064B08331A801B1D00
:100C20001A801B1D1A801B1D1A807047001002407D
:100C3000000C01402C08004070B504460D461646D5
:100C4000EF48406940F00100ED4948610520FFF799
:100C5000B3FBEC488563C66344630020E94908633D
:100C60000846006B08630846006B40F020000863EC
:100C70000846006B08630846006B40F0800008637C
:100C80000846006B08630846006B08630846006B63
:100C900040F4805008630846006B08630846006B08
:100CA00040F0020008630846006B40F00100086352
:100CB00002230D2200210120FFF7B6FB70BD70B5A5
:100CC00004460D461646CE48406940F00100CC4926
:100CD00048610520FFF770FBCA48456786670467CF
:100CE0000020C849C8660846C06EC8660846C06E7F
:100CF00040F02000C8660846C06EC8660846C06E50
:100D000040F08000C8660846C06EC8660846C06EDF
:100D1000C8660846C06E40F48050C8660846C06E7B
:100D2000C8660846C06E40F00200C8660846C06E3D
:100D300040F00100C8660223102203210120FFF7C2
:100D400073FB70BDAF48006800F4007028B1AD4877
:100D5000406840F40070AB49486070472DE9FC5F83
:100D6000A949086801F074FD04460D46A749C97DEC
:100D7000A64A127E41EA022108B201F069FB8046D0
:100D80000022A34B01F00CFA0022A24BCDE9000196
:100D900001F076FB81F00041064622462B4601F029
:100DA0006DFC824601F022F99B490860964948682B
:100DB00001F04EFD04460D469449497E934A927EC9
:100DC00041EA022108B201F043FB80460022904B29
:100DD00001F0E6F9064600228E4B01F051FB81F04E
:100DE000004122462B46CDE9000101F047FC824636
:100DF00001F0FCF8884948608349886801F028FDC3
:100E000082468B468149C97E804A127F41EA02218F
:100E100008B201F01DFB804600227D4B01F0C0F9B5
:100E2000064600227B4B01F02BFB81F0004104467B
:100E300052465B4601F022FCCDE9000101F0D6F8F4
:100E400075498860BDE8FC9F70B56E48006800F485
:100E5000001068B36B48406840F40010694948606E
:100E60006A480078512807D16848C07A522803D1CF
:100E70006648807D532809D06248C06E20F001008A
:100E80006049C86601206549087011E0FFF766FFF8
:100E90000120634908706348007848B95E49886852
:100EA00001F0D6FC044622460B465FA000F0CEF8C7
:100EB00070BD2DE9F05F55494978544A927841EA6E
:100EC000022108B201F0C4FA80460022504B01F022
:100ED00067F906460022564B01F0D2FA0446554AFD
:100EE000554B01F0CDFA824601F080F85349086075
:100EF0004649C978454A127941EA022108B201F00F
:100F0000A7FA06460022424B01F04AF98046002229
:100F1000474B01F0B5FA0446464A474B01F0B0FA98
:100F2000824601F063F84549486038494979374AB3
:100F3000927941EA022108B201F08AFA8046002241
:100F4000334B01F02DF906460022394B01F098FA97
:100F50000446384A384B01F093FA824601F046F8CD
:100F600036498860BDE8F09F2DE9F0472749097BA5
:100F7000264A527B41EA022108B201F069FA804612
:100F80000022234B01F00CF9064600222C4B01F005
:100F900077FA044601F02AF82A4908601B49897B40
:100FA0001A4AD27B41EA022108B201F051FA064600
:100FB0000022174B01F0F4F804460022204B01F008
:100FC0005FFA804601F012F81E4948600F49097C1B
:100FD0000E4A527C41EA022108B201F039FA064673
:100FE00000220B4B01F0DCF804460022144B01F008
:100FF00047FA804600F0FAFF12498860BDE8F087A2
:1010000000100240000002402000002038000020B4
:101010000000E04000806640640000201E000020C8
:101020001D0000200000002025660D0A00000000C1
:10103000000030409A9999999999234070000020B6
:1010400000409F4058000020704700000FB4044942
:1010500010B503AA029800F04BFA10BC5DF814FB1F
:10106000080000202DE9F0410E46044600202062D1
:101070002046E168884730B3252805D0D4E901210E
:101080009047206A401CF2E7E16820460027884725
:10109000050018D0A5F14100192802D820354FF4D9
:1010A00000673246294620462760FFF77BF840B1AB
:1010B000012804D0F61D26F007060836D8E7361DAD
:1010C000D6E72846DAE7206ABDE8F0817047704726
:1010D0007047704770472DE9FF4F0C461E464FF092
:1010E000FF378BB0D2E90001DDF860800A908A46B4
:1010F000C1F30A5505B93D46002108464FF00000EE
:10110000BAF1000F00F4400005DA00EB80004FF464
:10111000400101EA50004FEA9059B9F1010F00DD9A
:10112000B9460A9850EA4A000ED044F61050A5F28B
:10113000FF3545432F14B8F1000F1ED07542291E0C
:101140001EDDC9F100021CE0B8F1010F4FF00000F4
:1011500001D0302103E0F24305E02154401CB042AD
:10116000FBDB30460022002121540B99C1F8088096
:10117000C1E900200FB0BDE8F08FBD1B6D1CDEE79C
:101180004A4600DA694206A800F066FA06AB93E820
:10119000070003AB83E8070050460A9900F040FBC4
:1011A0008DE80700A0F500501F3800900398002D2F
:1011B00009DD42F21F014A46084403A9039068462C
:1011C00000F09FFD08E0A0F500504A461F3803A933
:1011D0000390684600F0A9FD8DE807000004000CAC
:1011E00003D04FF0FF30410800E01046B8F1000F87
:1011F00003D00022009215461EE0751E05D400F0B3
:101200008DF9303262556D1EF9D5B346012208437F
:1012100002D000227F1C04E02078302801D1002277
:101220007F1E002A099786D01DE0112D07DA00F0F5
:1012300075F9303262556D1C50EA0102F5D1084350
:1012400002D00098C8B10EE00021681E05E0235CC2
:10125000625C63542254401E491C8142F7DBAB465A
:10126000A81B401E0990002004F80B000B98099A57
:10127000C0F80880C0E9002B7CE711264FF0000879
:1012800059E72DE9F04F88460446D21D22F00701A8
:1012900091B0D1E90001CDE90A0100F07CFE0246DF
:1012A0000B98C00F01D02D2007E02068810701D5E1
:1012B0002B2002E0202101EAC000032A099001D07E
:1012C000072A05DB03464146204600F085F90BE17D
:1012D0002078800601D5E06900E00620B8F1650FAE
:1012E000814606D0B8F1660F18D0B8F1670F70D1FB
:1012F00031E00020B9F1110F009001DB112301E072
:1013000009F101030AAA01A90CA8FFF7E4FEDDE92F
:101310000C70002609F10105834647E001204B4689
:1013200000904FF000470AAA01A90CA8FFF7D3FECE
:10133000DDE90DB00C995D46002610B909F10100F8
:101340000D18B9EB050003D4C0F1FF3609F1010512
:10135000A5EB09002BE0B9F1010F01DA4FF001090B
:101360000020B9F1110F0090484601DD112300E083
:1013700003460AAA01A90CA8FFF7ADFEDDE90C702F
:101380004D4600268346207800070AD4AB4500DA94
:101390005D4601A8012D04DD411911F8011C302919
:1013A00007D04F4502DA17F1040F04DA0120824614
:1013B0000FE06D1EEEE7002F02DCED1B3E4403E064
:1013C000781CA84200DD7D1CB81B00F1010A4FF01B
:1013D00000472078000703D4AA4501DB4FF0FF3A0D
:1013E0000021B7F1004F0DF143088DF8431024D0D0
:1013F00002202B23002F01DA7F422D230A21021E17
:10140000A0F1010000DC5FB197FBF1FC97FBF1F26A
:1014100001FB1C7C17460CF1300C08F801CDEEE7FF
:10142000A8F1010003702188090501D5452100E0DC
:101430006521A0F1010800F8011C09980FA9A1EB92
:101440000807FF1D00B10120411901EBEA70A169F5
:101450003844081A401EA0612078C00602D42046F5
:10146000AFF30080099828B1D4E901219047206AA0
:10147000401C20622078C00622D52046AFF30080B1
:101480001EE0002E04DBB34502DD01A8805D00E014
:101490003020D4E901219047206A401C2062761C4C
:1014A000AAF101005FEA000A0AD100F033F8C0682F
:1014B0000168405CD4E901219047206A401C206209
:1014C000281EA5F10105DCDC07E0D4E9012118F8AC
:1014D000010B9047206A401C2062381EA7F10107CB
:1014E000F3DC2046AFF30080032011B043E6000098
:1014F000074B70B50D467B4400F05BF80446284668
:1015000000F018F910B14FF0FF3070BD204670BDEB
:10151000C1F1FFFF004870479C00002030B5B0F1DA
:101520000A024FEA900E71F100034EEA817EB0EBA1
:101530000E0061EB91014FEA101E4EEA017E10EBA6
:101540000E0041EB11114FEA102E4EEA016E10EB26
:101550000E0041EB11214FEA104E4EEA014E10EB06
:101560000E0041EB1141401841F100014FEAD0005B
:1015700040EA41704FEAD10110EB80054FEA810447
:1015800044EA907444EB01046D1944EB0404521BCB
:10159000A3414FF0000348BF0A3200D530BD401CC4
:1015A00041F1000130BD000001694A1C0261087868
:1015B000704700B58FB0CDE9013100210591054993
:1015C0007944CDE9031011466846FFF74BFD0FB093
:1015D00000BD0000E5FFFFFF2DE9F0411F46044676
:1015E00003260168072A01F4006004DB08B116A590
:1015F00005E016A503E008B115A500E015A521F04A
:1016000010002060A069C01EA0610FB1401EA06143
:101610002046AFF300804FB1D4E90121384690470E
:10162000206A401C2062C01C206206E0206AFAE7A3
:10163000D4E9012115F8010B9047761EF8D2204617
:10164000AFF30080BDE8F0814E414E006E616E0048
:10165000494E4600696E66002DE9F0478146164600
:101660008AB0334878440DC88DE80D00304878447E
:10167000801C03AC0DC884E80D0041F69B30084483
:10168000372190FBF1F290FBF1F5A5F1800501FB0C
:1016900012041B3C02D56442012000E00020DFF868
:1016A00090A080460027FA44AAF1BE0A0DE0E007A8
:1016B00009D03246684607EB47010AEB810100F08A
:1016C00034FB8DE8070064107F1C002CEFD1184F0D
:1016D0007F44AC3F18E0E80714D007EB04100DF18D
:1016E000180A90E80E008AE80E00C068F04201D1A6
:1016F00098190890324606A903A800F016FB03AB20
:1017000083E807006D10641C002DE4D13246694661
:10171000B8F1000F03A802D000F0F3FA01E000F0E6
:1017200004FBC9E90001C9F808200AB0BDE8F08748
:1017300008180000007B00F08000704700487047E8
:101740007C0000207546FFF7F9FFAE4605006946AC
:10175000534620F00700854618B020B5FEF7E4FD9B
:10176000BDE820404FF000064FF000074FF00008A2
:101770004FF0000B21F00701AC46ACE8C009ACE823
:10178000C009ACE8C009ACE8C0098D46704710B587
:101790000446AFF300802046BDE81040FEF71CBDB4
:1017A0004FF0013C50F8042B51F8043B9A4221D1F0
:1017B000A2EB0C03934313EACC1317D150F8042B7C
:1017C00051F8043B9A4215D1A2EB0C03934313EA60
:1017D000CC130BD150F8042B51F8043B9A4209D199
:1017E000A2EB0C03934313EACC13DBD04FF00000C1
:1017F000704700BFD01A01BAB1FA81F101F01801A7
:1018000022FA01F0CB40C1F12001DBB2C0B2C01A14
:101810002CFA01F3D11A914311EAC311E6D17047B2
:101820005FEA400C08BF91F0000F4FEA8C234FEAAB
:10183000C12243EA51514FEA1C5018BF00F5F04055
:101840004FEA300018BF41F000415FEA6C5C00F0E5
:101850002980BCF1FF3F08BF40F080407047130C67
:1018600006BF12044FF0100C4FF0000C130E04BF13
:1018700012020CF1080C130F04BF12010CF1040C3E
:10188000930F04BF92000CF1020CD30F04BF52005F
:101890000CF1010C11464FF00002A0F11F00A0EB6B
:1018A0000C00704711F0004F08BF704731F0004145
:1018B0003FF4D5AF0B0C06BF09044FF0100C4FF0EE
:1018C000000C0B0E04BF09020CF1080C0B0F04BF37
:1018D00009010CF1040C8B0F04BF89000CF1020C00
:1018E000CB0F04BF49000CF1010CCCF12003A0EB9D
:1018F0000C0022FA03F302FA0CF241EA030100F1B0
:101900000100704720F07F4C80EA030023F07F47FE
:10191000ACEB070303F57C5300F0004003F1FF0339
:101920002DE980494FEA154B09B44FEA144325EAE3
:101930000B4E24EA03480FF2042606EB132749084E
:101940003E785FEA320203FB0667C7F5000707FB34
:1019500006F64FEA54374FEAD64606F1020607FB71
:10196000066CCCF1005C4FEA1C472CEA074C07FBE5
:1019700006F40CFB06F504EB15464FEA961634BF49
:1019800000204FF000404FEAD13706FB07FC4FEA3A
:101990001C4C0CFB0BF7D21B03FB0CF761EB070194
:1019A0000CFB0EF7B0EB074072EB17420CFB08F78D
:1019B00034BFA2EB0742B2EB074261EB17414FEA9B
:1019C0000C444FEA910706FB07FC4FEA1C4C0CFB4A
:1019D0000BF7B0EBC74072EB573203FB0CF734BF89
:1019E000A2EBC742B2EBC74261EB57310CFB0EF7DB
:1019F000B0EBC70072EB57720CFB08F734BFA2EBD9
:101A0000C702B2EBC70261EB5771039F4FEA8161D6
:101A100041EA921104EBCC044FEAD1374FEA8262DB
:101A200006FB07FC42EA90124FEA80604FEA1C4C2A
:101A30000CFB0BF7D21B03FB0CF761EB07010CFB54
:101A40000EF7B0EB074072EB17420CFB08F734BF00
:101A5000A2EB0742B2EB074261EB17414FEA8C550C
:101A60004FEA910704EB9C2406FB07FC4FEA1C4C51
:101A70000CFB0BF7B0EBC74072EB573203FB0CF7D4
:101A800034BFA2EBC742B2EBC74261EB57310CFB4C
:101A90000EF7B0EBC70072EB57720CFB08F734BFC0
:101AA000A2EBC702B2EBC70261EB577115EB4C25F5
:101AB0004FEA816141EA92114FEA82624FEAD137DF
:101AC00042EA901206FB07FC44F100044FEA8060F2
:101AD0004FEA1C4C0CFB0BF7D21B03FB0CF761EB22
:101AE00007010CFB0EF7B0EB074072EB17420CFB43
:101AF00008F734BFA2EB0742B2EB074261EB174194
:101B000015EB1C154FEA813141EA92414FEA8232CE
:101B100042EA90424FEA80304FEA0C7644F10004EA
:101B200048EA03434EEA0B484FF0000EB2EB080CB4
:101B300071EB030724BF624639464EEB0E0E4FF0A1
:101B4000000B0018524149414BEB0B0BB2EB080C58
:101B500071EB03077BF1000B24BF624639464EEB65
:101B60000E0E4FF0000B0018524149414BEB0B0B8E
:101B7000B2EB080C71EB03077BF1000B24BF62464C
:101B800039464EEB0E0E51EA020718BF46F0010629
:101B900016EB0E7655F1000254F1000103D5BDE8B5
:101BA0008901BDE80088BDE88901BDE80048B61993
:101BB000524141EB0101A3F10103704780807F7E18
:101BC0007D7C7B7A797877767675747372717170B3
:101BD0006F6E6E6D6C6C6B6A6A6968686766666565
:101BE0006464636362616160605F5F5E5E5D5D5CF3
:101BF0005C5B5B5A5A595958585757565655555564
:101C00005454535352525251515050504F4F4F4EC3
:101C10004E4D4D4D4C4C4C4B4B4B4A4A4A49494911
:101C20004848484747474746464645454544444453
:101C3000444343434342424242414141002B26D464
:101C4000770021D01CB54FEA370703B44FF01000DE
:101C50004FF010014FF000000FBCBDE810400BF139
:101C6000010BBBF1010F08BF5FEA170722BF12F19A
:101C7000010211F101014FF0004143F1000300F0B6
:101C8000004043EA00007047F9D35708DAE746EA14
:101C9000064613F1400F4FEA16461FDD13F1200FE1
:101CA000DFBF16430A46002120335B42C8D0C3F190
:101CB000200746EA064602FA07F74FEA164646EAC2
:101CC0000706C3F1200722FA03F201FA07F721FA07
:101CD00003F14FF0000342EA0702B1E746EA0206C9
:101CE00046EA06464FEA164646EA0106BCBF46EA01
:101CF0000646360C4FF000034FF000024FF0000193
:101D00009EE72DE9C048934630B491E8380007C8F3
:101D100031EA400C48BF34EA430C03D5FFF7F2FD2B
:101D2000FFF78CFFF0BCBDE800882DE9C048934662
:101D300030B491E8380007C810F0804F08BF13F0A6
:101D4000804F03D100F005F8FFF778FFF0BCBDE845
:101D5000008820F07F4780EA030023F07F4C07EBE8
:101D60000C03A3F57C5300F00040A3F1FE0392F0B6
:101D7000000F00F0B38095F0000F00F077802DE9A0
:101D800001494FEA11404FEA144621EA004800FB9E
:101D900006FC24EA064708FB06F607FB08F800FBEA
:101DA00007F718EB06484CEB164C4FEA124B18EBB2
:101DB00007484FEA15464CEB174022EA0B4E0BFB47
:101DC00006FC25EA06470EFB06F607FB0EFE0BFB9C
:101DD00007F71EEB064E4CEB164C4FF000061EEBC1
:101DE000074E4CEB174B18EB0B0840F1000018EBBB
:101DF0000E0B58EB000840F100008F1A4FF0000165
:101E00003CBFC943661B14BFB5EB040C00213CBFAB
:101E1000C943F61B4FEA17444EEA8E0E27EA0445E3
:101E20004FEA1C4704FB07622CEA074C05FB07F747
:101E30000CFB05F604FB0CFC16EB074642EB1742C5
:101E400016EB0C4642EB1C421BEB060658EB02025B
:101E5000414146EA9E0601D5BDE80189B6195241C5
:101E600041EB0101A3F10103BDE801894FEA1445EB
:101E70004FEA114724EA054621EA074C05FB07F41F
:101E800006FB07F70CFB06F105FB0CFC11EB074109
:101E900044EB17444FEA124711EB0C4144EB1C444E
:101EA00022EA074C05FB07F206FB07F70CFB06F6D8
:101EB00005FB0CFC16EB074642EB174216EB0C46F3
:101EC00042EB1C456A1854F1000148BF7047B6192F
:101ED000524141EB0101A3F10103704795F0000F5E
:101EE00037D04FEA11424FEA144721EA024624EA6A
:101EF000074C02FB07F106FB07F70CFB06F402FB9D
:101F00000CFC14EB074441EB17414FEA154714EB67
:101F10000C4441EB1C4125EA074C02FB07F506FB8C
:101F200007F70CFB06F602FB0CFC16EB074645EB2D
:101F3000174516EB0C4645EB1C42121951F10001F6
:101F400048BF7047B619524141EB0101A3F10103AB
:101F500070474FEA14454FEA114724EA054621EA43
:101F6000074C05FB07F106FB07F70CFB06F24FF0E9
:101F7000000605FB0CFC12EB074241EB174112EB8C
:101F80000C4251EB1C4148BF7047921841EB0101D4
:101F9000A3F101037047490050EAC12018BF042093
:101FA0004A0D18BF40F0010040F2FF72B2EB515FE2
:101FB00008BF40F00200012808BF0520704700005C
:101FC00010B500290AD00878002807D005487844C1
:101FD000FFF7E6FB002801D0002010BD024878443E
:101FE00010BD0000DA0E0000D20E000021F0004209
:101FF000A2F16052B2F5801F01F0004328BFD2F178
:102000007F6C0BD95FEA001C43EAC20242EB5070BE
:1020100018BF704728BF20F001007047B2F5801F3D
:10202000BCBF184670474FEA410C1CF5001F02D296
:10203000084600F058BE70B500F0CCFA00000089E8
:10204000FFF7F6BF4FF00040A0F58000704700009A
:1020500010B591EA030F48BF83F0004300F11683E7
:10206000841A71EB030C05D2121943EB0C03001B0D
:1020700061EB0C01DFF824E14FEA1154A4EB135C8F
:102080001EEA430F18BF9EEA445F73D023EA0E0393
:10209000DCF1200E21EA045143F4801332D322FAFA
:1020A0000CFE10EB0E0023FA0CFE41EB0E01CCF1FE
:1020B000200E03FA0EFE10EB0E0051F10001B1F5F7
:1020C000801FCCF1200E32D201EB045112FA0EF235
:1020D000BDE8104058BF7047401C38BF5FEA42025D
:1020E00018BF7047002814BF20F0010041F1000123
:1020F0004FEA410313F5001F38BF7047A1F1C041FB
:1021000000F0B6BA012A43EB0302ACF1200CDCF17B
:102110001F0E32BF4FF0000E23FA0CF310EB03003A
:1021200041EB0451B4EB115FD0D0A1EB045101F5A8
:10213000801149085FEA300001EB04510ED350F1E1
:10214000000038BF12FA0EFE08D1BDE81040C9E702
:10215000401C38BF5FEA4202CAD1C3E7BDE8104065
:102160004FEA410313F5001F38BF7047A1F1C0418A
:1021700000F07EBA9EEA445F08D011EA5E0FBDE827
:10218000104004BF01F0004100207047BDE810403E
:1021900070B500F01FFA00BF64FBBE3E0000E0FF18
:1021A0002DE9C04130B4DFF8A0C23CEA111418BFD9
:1021B0003CEA131400F0EC8081EA03051CEA1114D8
:1021C00044EAD57418BF1CEA131500F0C780A4EBCD
:1021D00005044FF0004545EAC12145EAC32341EA21
:1021E000505143EA525304F17F74994204F500348C
:1021F0004FEAC0204FEAC22208BF904200F09C8004
:102200004FEA13650FF24016765D4FEA134506FB61
:1022100005F7C7F1807706FB07F74FEAD737A7FB2B
:1022200003687642C8F58038A7FB06CE38BFA8F110
:10223000010807FB08E64FF0000EA6FB028CE6FB48
:1022400003CEDCF1000CCEF1004E38BFAEF1010E32
:10225000A6FB0C584FF000074FF00005E6FB0E8779
:10226000A1FB08C6A0FB07CE16EB0E0645F1000544
:10227000E1FB076515F1E04E7EBFA4F580345FEA0F
:1022800046066D4116F1800745F100054FEA172714
:102290004FEA066647EA0567A6F1DE46B6F1805FBB
:1022A0004FEA15251FD9384624F0010C05EBC471FF
:1022B000BCF1FE6F01EB0C1102D8F0BCBDE800814F
:1022C00024425CBF01F5801E9EEAC47F02D4F0BCAC
:1022D000BDE80081244238D4F0BCA1F1C041BDE882
:1022E000004100F0C5B94FEAD22242EA43524FEA18
:1022F000D323A7FB02864FEAD02040EA415007FBD8
:1023000003661EEA0E0F4FEAD12105FB026658BF95
:10231000A6EB0056B6EB00564FEA520E4EEAC37ECD
:1023200018EB0E0E56EB530EBDD518EB02085E41AE
:102330007F1C55F10005B6E74FF480154FF00007FC
:102340004FF000064FF00008ADE7F0BC4FF0000082
:1023500001F1C04101F00041BDE8008111EA0C1F0C
:102360000CEA131500D00CE013EA0C1F00F02580D6
:102370004FF00000F0BC81EA030101F00041BDE82C
:102380000081F0BCBDE8004181EA030100F070B9B2
:10239000F0BCBDE8004170B500F01CF9097EFC3EC0
:1023A00000F007B881EA03014FF0000001F000419E
:1023B000704781EA030100F05BB9F0BCBDE8004161
:1023C0004FF0000021497047FFFDFBF9F7F5F4F2EB
:1023D000F0EEEDEBE9E8E6E4E3E1E0DEDDDBDAD8C0
:1023E000D7D5D4D3D1D0CFCDCCCBCAC8C7C6C5C41E
:1023F000C2C1C0BFBEBDBCBBBAB9B8B7B6B5B4B335
:10240000B2B1B0AFAEADACABAAA9A8A8A7A6A5A41F
:10241000A3A3A2A1A09F9F9E9D9C9C9B9A999998E3
:102420009797969595949393929191908F8F8E8E86
:102430008D8C8C8B8B8A8989888887878685858413
:1024400084838382828181800000FF070000F87FFF
:1024500010F0004248BF4042B0FA80F310FA03F196
:102460000AD0C3F11D0303F580634FEA415002EB2C
:10247000035202EBD12170474FF00000704700007B
:10248000DFF848C170B51CEA111E1EBF1CEA131507
:102490009EEA0C0F95EA0C0F00F06F8081EA0304AE
:1024A00023EA4C134EEAD47E21EA4C1141F4801108
:1024B00043F48013AE44A1FB024CA0FB0365AEF1D4
:1024C0007F7E361955EB0C05A1FB034C4CF1000344
:1024D000A0FB021C16EB0C06654153F100030942F8
:1024E00018BF46F0010613F4007F0BD14FEA033109
:1024F0004FEA0530340341EA155140EA16506FF0B7
:1025000003020AE04FEAC3214FEAC520F40241EA80
:10251000555140EA56506FF0020202EB2E4201EB99
:10252000025585EACE710AD05FEA440C18BF24F048
:10253000004450F1000041F1000120EAD47040F263
:10254000FE7C624500D270BDA84214BF4FF08044AB
:102550004FF04044002E08BF0024BEF1806FA8BF9A
:10256000A1F1C041BDE8704080F282804FF00000D0
:1025700001F1C04101F0004170479EEA0C0F0CEAE6
:10258000131518BF95EA0C0F06D04FF0000081EA32
:10259000030E0EF0004170BD00F01CF88900013EF2
:1025A00000F007B800F009B84FEA430C5FEA5C5C42
:1025B00008D081EA030100F05BB84FEA410C5FEA02
:1025C0005C5CF6D14FF00000014970470000FF0746
:1025D0000000F87F0EF1020E2EF0030E5EF8046B81
:1025E000364205D4012A43EB030515F5001F12D826
:1025F000012841EB010C1CF5001F0CD80ED14FEA4D
:10260000D17C15F5001F0CEB4C0C0CF1020C08BF33
:102610004CEBD37C04E04FF0080C01E04FEAD37C94
:102620000CEB4C0526FA05F606F00706B6F1040C8D
:1026300006D20EEB860CBDE870404CF0010C6047F2
:10264000DFE80CF0090B02024FF000414FF00000F0
:10265000A1F5002170BD19461046012851EB010477
:1026600018BFD4F5001484BF002001F0004170BDF4
:102670000808A0F500114FEA3101704710B591EA42
:10268000030F48BF83F000433FF5EAAC841A71EBB7
:10269000030C07D212198CF0004C43EB0C03001B07
:1026A00061EB0C01DFF8A4E14FEA1154A4EB135CD9
:1026B0001EEA430F18BF9EEA445F00F0B08023EA91
:1026C0006E03524221EA0451C3EB6E0338BF5B1E16
:1026D000DCF1200E25D322FA0CFE10EB0E0043FA9B
:1026E0000CFE41EB0E01CCF1200E03FA0EFE10EBB6
:1026F0000E0051F10001CCF1200E29D412FA0EF295
:1027000001EB0451BDE8104058BF7047401C1CBF8E
:10271000B2F1004F704700280CBF491C20F00100A7
:10272000704712EB020E43EB030218BF4FF0010E8D
:102730004EEA4202ACF1200CDCF11E0E54D943FAF1
:102740000CFE10EB0E0051F1FF31CCF11E0ED5D571
:102750000EF1010E12FA0EFE404141EB010101EBB8
:10276000445C5FEA5C5C10D910EBDE7001EB045155
:1027700038BFBEF1004FBDE8104018BF70470028B9
:102780000CBF491C20F00100704730D24FEAD42C16
:1027900011F5001124F400641BD0B1FA81F20B3A58
:1027A000A41AA41ED2F12003914030FA03F3194376
:1027B000904001EBCC71002C01EB0451BDE81040BE
:1027C000A8BF704701F1C0414FF0000001F0004187
:1027D0007047B0FA80F310FA03F100D110BDE41A8B
:1027E000173C4805C90AE4E701EB045110BD491044
:1027F00001EB0451BDE810404FEA300002E04FF019
:10280000000170474A0008BF0042F8D0B2F5001F2F
:1028100028BF704701F000414FF0000070479EEA6A
:10282000445F07D011EA5E0FBDE8104004BF0021ED
:1028300000207047BDE8104070B5FFF7CBFE00BF29
:1028400040DFF63E83F00041104670470000E0FF95
:1028500043004FEAD30C4FEA3C0C43401FBF4007F4
:102860000CF1605113F0FE4F70471CF0006F03D164
:1028700000200CF0004170470CF0004343EA507018
:1028800010B540EACC0000F0E8F900BF000000926B
:102890004FEA0001FFF7ECBE4FF000414FF000009F
:1028A000A1F500217047000090EA010F48BF81F0B8
:1028B000004100F12E82421A3CBF801A89184FEA6B
:1028C000D0524FF07F4C1CEA410FA2EBD15318BFFE
:1028D0009CEA026F00F03B804FF0004C4CEA002075
:1028E0004CEA012121FA03FC10EB0C0C1ED202F180
:1028F000FF325FEA1C2040EBC25038BF70471CF02B
:102900007F0F4FEA400C18BFBCF17F4F38BF7047B4
:10291000C3F12003994008BF20F00100BCF17F4FB4
:1029200038BF7047A0F1C04000F0DDB94FEA3C006D
:10293000000A40EBC25028BF1CF0FF0F4FEA400CCA
:10294000E6D018BFBCF17F4F38BF7047EAE79CEA7A
:10295000026F05D010EA5C0F08BF00F0004070471E
:1029600010B500F07AF900BF64FBBE3E4FF47F0C57
:102970001CEAD0121EBF1CEAD11392EA0C0F93EA94
:102980000C0F00F0858090EA010F48BF42F480727E
:1029900040F4000C41F400002CF07F4120F07F4017
:1029A00000B58142A2EB03020FF2081CACEB504EC3
:1029B000C0F100009EF800E04FEA4E0E00FB0EFC56
:1029C00038BF49004FEA2C1C02F5FA020CFB0EF34B
:1029D0004FEACE1E4FEA112C4FEAC1210EEB635E87
:1029E00042EB22420EFB0CFC4FEA1C5300FB03118E
:1029F0004FEA112C4FEA01310EFB0CFC4FEADC4C84
:102A000000FB0C11C14228BF09184CEB03335DF8E1
:102A100004EB10EB410143EBC250B2F57C0F38BF21
:102A2000704729D512F0F00F1CBF00F1C04000F034
:102A300000407047008182838485868788898B8CDB
:102A40008D8E8F919293959697999A9C9D9FA0A217
:102A5000A3A5A7A8AAACAEB0B2B3B5B7B9BCBEC067
:102A6000C2C5C7C9CCCED1D4D7D9DCDFE2E6E9EC08
:102A7000F0F3F7FAFE0000004FEA400C0CF1807C06
:102A8000BCF17E4F28BF7047B0F1C04000F02BB9B9
:102A900090EA010F0CEAD11348BF42F480726245FC
:102AA00038BF634507D213F47F0F16D080EA0100C8
:102AB00000F00040704710B500F0CFF8097EFC3EF2
:102AC00000F005B880EA010000F00040704780EA9D
:102AD000010000F0004000F006B912F47F0F04BFBF
:102AE0000248704780EA010000F0FDB80000C07F96
:102AF000C10DD1F19E0206DB4FEA002343F00043F3
:102B000023FA02F07047004207D54FEA4001B1F1C5
:102B1000FE4F02D24FF00000704710B500F09DF854
:102B200049922480002070476FEA2000704700001F
:102B3000B0FA80F310FA03F2C3F19D030AD0D9056D
:102B400001EB1220530638BF704700F1010008BFA7
:102B500020F00100704700004FF47F0C1CEAD012F7
:102B60001EBF1CEAD11392EA0C0F93EA0C0F00F07F
:102B7000478090EA010F48BF42F480724FF0004C4A
:102B80004CEA00204CEA012102EB0302A0FB0113F6
:102B9000A2F50002002918BF43F001035B0028BF23
:102BA0004FEA330342EB22425FEA132C4CEBC25054
:102BB0002EBFBCEB436FB2F57C0F70474FEA036C3E
:102BC000BCF1004F08BF20F00100B2F57C0F38BF08
:102BD00070470BD582F0FF0212F5803FC8BF7047E7
:102BE00000F1C040D8BF00F00040704700F5000C75
:102BF0005FEA4C0C48BF7047B0F1C04000F073B8BA
:102C000090EA010F0CEAD11348BF42F4807262458A
:102C100038BF634504D280EA010000F000407047ED
:102C200010B500F01AF800BF8900013E00F007B8A7
:102C300000F009B85FEA410C5FEA1C6C08D080EA3A
:102C4000010000F050B85FEA400C5FEA1C6CF6D15E
:102C50004FF00040A0F5800070470EF1020E2EF0FC
:102C6000030E5EF8044B244204D44FEA4102B2F151
:102C70007F4F11D84FEA4003B3F17F4F0CD80ED1EC
:102C80004FEAD07CB2F17F4F0CEB4C0C0CF1020CF4
:102C900008BF4CEBD17C04E04FF0080C01E04FEA98
:102CA000D17C0CEB4C0324FA03F404F00704B4F1D8
:102CB000040C06D20EEB840CBDE810404CF0010C65
:102CC0006047DFE80CF0070802024FF00040A0F573
:102CD000800010BD0846420018BFD2F1807288BF44
:102CE00000F0004010BDFF2141EAD050C005704700
:102CF00080F0004090EA010F7FF5DDAD81F00041EA
:102D000000F007B890EA010F48BF81F000413FF59D
:102D1000D2AD421A04D882F00042A0EB0200114466
:102D20004FEAD0524FF07F4C1CEA410FA2EBD15337
:102D300018BF9CEA026F4AD04FF0004C4CEA0020CA
:102D40004CEA012121FA03FCB0EB0C0C0FD412F079
:102D5000FE0F36D05FEA4C001DD5001240EBC2508A
:102D600038BF70471CF03F0F18BF70470BE0A2F14F
:102D700001025FEA1C2040EBC25038BF70471CF0D4
:102D80007F0F18BF7047C3F12003994014BF401E46
:102D900020F00100704780084FEA122308BF7047F7
:102DA000B0FA80FCA2EB0C02CCF1280C60FA0CF01B
:102DB00093EA122F04BF00EBC25070474FEAC37072
:102DC0007047130A5FEADC1008BF7047F6E79CEA19
:102DD000026F04D010EA5C0F08BF0020704710B5E6
:102DE000FFF73BFF40DFF63E81F000407047FEF703
:102DF00048BA000002400000000000A000000000EF
:102E000005400000000000C8000000000C40000069
:102E10000000409C00000000194000000020BCBEE3
:102E20000000000034400000BFC91B8E00000004F9
:102E3000B5400000504BCFD06607E2CF0100000044
:102E40006C4100003E8251AADFEEA7340100000071
:102E5000D9420000DCB5A0E23A301F97FFFFFFFF28
:102E6000B4450000FD25A0C8E9A3C14FFFFFFFFF47
:102E7000FF3F00000000008000000000FF3F000056
:102E80000000008000000000C42E000800000020A8
:102E9000200000006C010008E42E00082000002043
:102EA000C0060000880100081C000000430000006C
:102EB000F8FFFFFF0C0000000E0000000F000000F4
:102EC0002E000000010000000000000000000000D3
:102ED00000000000000000000000000000000000F2
:042EE00000000000EE
:0400000508000131BD
:00000001FF
