:020000040800F2
:1000000060050020310200083F020008410200089C
:1000100043020008450200084702000800000000F3
:10002000000000000000000000000000490200087D
:100030004B020008000000004D0200084F020008BB
:100040005102000851020008510200085102000844
:100050005102000851020008510200085102000834
:100060005102000851020008510200085102000824
:100070006D080008510200085102000851020008F2
:10008000D108000851020008390600085102000892
:1000900051020008510200085102000851020008F4
:1000A00051020008510200085102000851020008E4
:1000B00051020008510200085102000851020008D4
:1000C00051020008510200085102000851020008C4
:1000D00051020008A51B0008C11B0008811C000874
:1000E00051020008510200085102000851020008A4
:1000F0005102000851020008510200085102000894
:100100005102000851020008510200085102000883
:10011000510200085102000859160008A1190008F0
:100120005909000851020008510200085102000854
:100130005102000851020008510200085102000853
:100140005102000851020008510200085102000843
:100150005102000851020008510200085102000833
:100160005102000851020008510200085102000823
:100170005102000851020008510200085102000813
:10018000510200085102000800F002F800F041F8A6
:100190000AA090E8000C82448344AAF10107DA45E2
:1001A00001D100F036F8AFF2090EBAE80F0013F0F3
:1001B000010F18BFFB1A43F001031847EC2500009C
:1001C0000C260000103A24BF78C878C1FAD852072C
:1001D00024BF30C830C144BF04680C6070470000C1
:1001E0000023002400250026103A28BF78C1FBD840
:1001F000520728BF30C148BF0B607047642900F028
:100200007B80002070471FB502F0C8FA1FBD10B5F3
:1002100010BD00F039F91146FFF7F5FF01F09EFF20
:1002200000F057F903B4FFF7F2FF03BC01F02AFF17
:100230000B48016841F4700101600A480047FEE77D
:10024000FEE7FEE7FEE7FEE7FEE7FEE7FEE7FEE786
:10025000FEE7000004480549034A054B70470000CB
:1002600088ED00E0890100086001002060050020A1
:1002700060010020704700000FB4044910B503AAC4
:10028000029800F0D3F810BC5DF814FB04000020C5
:100290002DE9F0410E460446002020622046E16828
:1002A000884730B3252805D0D4E901219047206A3A
:1002B000401CF2E7E168204600278847050018D077
:1002C000A5F14100192802D820354FF400673246C5
:1002D000294620462760FFF791FF40B1012804D04E
:1002E000F61D26F007060836D8E7361DD6E728465D
:1002F000DAE7206ABDE8F0812DE9F04106460024E6
:1003000010687529314616A510D0AFF3008000287B
:1003100002DA404213A507E031688A0701D512A529
:1003200002E0490704D511A5012401E0AFF30080E4
:1003300000210A2206F1240709E0B0FBF2FCB0FB21
:10034000F2F302FB1C00303078541846491C002898
:10035000F3D123462A463046BDE8F04100F00CB800
:10036000000000002D0000002B0000002000000015
:1003700070477047704770472DE9F0470D46994622
:100380009246044600F124080168880604D5E06915
:1003900021F01001216000E00120A84201DD471B8F
:1003A00000E00027A1697A1902EB0900081AA06190
:1003B0002078C00602D42046AFF30080002608E073
:1003C000D4E901211AF806009047206A401C761CE7
:1003D00020624E45F4DB2078C0060AD52046AFF3F4
:1003E000008006E0D4E9012130209047206A401CBB
:1003F0002062381EA7F10107F4DC07E0D4E90121EF
:1004000018F805009047206A401C2062281EA5F1BC
:100410000105F3DC2046AFF300802078000602D50A
:100420000220BDE8F0870120FBE70000074B70B514
:100430000D467B4400F011F80446284600F020F8F1
:1004400010B14FF0FF3070BD204670BD0B1D000095
:1004500001694A1C02610878704700B58FB0CDE988
:1004600001310021059105497944CDE90310114678
:100470006846FFF70DFF0FB000BD0000E5FFFFFF6E
:10048000007B00F080007047754600F02BF8AE4608
:1004900005006946534620F00700854618B020B590
:1004A000FFF7D8FEBDE820404FF000064FF00007F0
:1004B0004FF000084FF0000B21F00701AC46ACE80C
:1004C000C009ACE8C009ACE8C009ACE8C0098D4679
:1004D000704710B50446AFF300802046BDE81040D9
:1004E000FFF7A0BE00487047000100201CB54E4831
:1004F000006840F480704C4908604B48143800682C
:1005000040F00400484914390860012000210B46DE
:100510000322CDE900103F21444800F04FFC42483F
:100520002038006840F480703F4920390860084650
:10053000006820F4807008604FF440303C49086047
:1005400000203C49486088600846406820F0807080
:1005500048600846406840F480704860084640683B
:1005600040F020004860022312220321012000F005
:1005700025FD3048806840F480702E498860002056
:10058000C8600846C06840F00700C8600846C068F8
:1005900040F03800C8600846C06840F4E070C860A9
:1005A0000846C06840F46060C8600846C06840F40F
:1005B000E040C8600846C06840F46030C860084643
:1005C000C06A20F47000C8620846C06A40F4C000E7
:1005D000C862002048630846406B40F00A00486348
:1005E0000846406B40F4B07048630846406B40F4E6
:1005F000405048630846406B40F4D02048630846AA
:10060000406B40F4600048630846406B40F0F05097
:1006100048630846806840F00200886008468068A9
:1006200040F0010088601CBD4438024000080240D0
:1006300004230140002001400E48006800F0020041
:10064000B8B10C48006820F002000A49086008466A
:10065000806820F48070886000BF0648806800F4DD
:1006600080700028F9D10348806840F48070014907
:100670008860704700200140F0B500230024002569
:100680000022002100BF05E07648C05C104482B221
:10069000581CC3B2102BF7DBD61702EB16663612C6
:1006A000A2EB06266F4F3F7CBE4201D1012400E041
:1006B00000240022002307E06A4E03F11400305C9E
:1006C000104482B2581CC3B2142BF5DBD61702EBD0
:1006D00016663612A2EB0626624F97F82870BE42C5
:1006E00001D1012500E00025002C7DD0002DFCD09B
:1006F0005C48C0785B4EB67840EA062000B2014301
:1007000001F4004020B1C1F30E00404201B201E00B
:10071000C1F30E0100EE101AB8EEC00AF2EE040AA0
:1007200080EE201A504880ED001A00214D48407993
:100730004C4E367940EA062000B2014301F40040F5
:1007400020B1C1F30E00404201B201E0C1F30E013D
:1007500000EE101AB8EEC00AF2EE040A80EE201A7B
:10076000414880ED011A00213E48C0793D4EB679DE
:1007700040EA062000B2014301F4004020B1C1F379
:100780000E00404201B201E0C1F30E0100EE101A6A
:10079000B8EEC00AF2EE040A80EE201A324880ED6C
:1007A000021A00212F48407A2E4E367A40EA06205F
:1007B00000B2014301F4004020B1C1F30E004042F9
:1007C00001B201E0C1F30E0100EE101AB8EEC00A4A
:1007D000F2EE040A80EE201A234880ED031A00216D
:1007E0002048C07A1F4E00E039E0B67A40EA062081
:1007F00000B2014301F4004020B1C1F30E004042B9
:1008000001B201E0C1F30E0100EE101AB8EEC00A09
:10081000F2EE040A80EE201A134880ED031A00213C
:100820001048407B0F4E367B40EA062000B2014361
:1008300001F4004020B1C1F30E00404201B201E0DA
:10084000C1F30E0100EE101AB8EEC00AF2EE040A6F
:1008500080EE201A044880ED031A0120F0BD00202C
:10086000FCE70000BC000020E800002010B51348A1
:10087000006800F4006000B31048806840F4006035
:100880000E4988600E48007E18B100200D4908709E
:1008900004E000F0EDFB01200A4908700A480088D6
:1008A00020F04000084908800448806A20F00100D8
:1008B0000249886201200549087010BD00600240AD
:1008C000140000200D000020144800400E000020FD
:1008D00010B51B48406800F4006060B31848C06859
:1008E00040F400601649C860012016490870164897
:1008F000008820F0400014490880114888300068C2
:1009000020F001000E49C1F8880001200F4908704D
:100910000F480078122812D10D484078A1280ED136
:100920000B4890F82900AA2809D1FFF7A5FE18B1B5
:1009300001200849087002E000200649087010BD37
:100940000060024008000020144400401000002015
:10095000BC0000200F00002000202049096801F0A1
:100960002001002939D01D490831096841F02001D2
:100970001A4A0832116000BF0BE0194931F8101013
:10098000184A32F810201144154A22F81010411C60
:10099000C8B20628F1DB14490978491C124A1170C3
:1009A00011460978072918DD0021117000200FE099
:1009B0000B4A32F81010CA1701EB5272D2100B4BCF
:1009C00023F810200021064A22F81010411CC8B25A
:1009D0000628EDDB0121064A1170704700640240D1
:1009E0006400002058000020130000207000002048
:1009F000110000202DE9F05F04460F46904699460D
:100A0000DDE90AAB4348844207D9054642480068FD
:100A100040F480004049086006E0404D3E480068D0
:100A200040F400103C49086000BF206800F001005D
:100A30000028FAD1601B10381821B0FBF1F0C6B2C3
:100A4000062E0ADBE868B11F01EB410149001031B5
:100A50003D228A401043E86020E0042E09DBE8686C
:100A6000311F01EB41014A003D2191400843E860FC
:100A700014E0022E0ADBA868B11E01EB4101490017
:100A800010313D228A401043A86007E0A86806EBB9
:100A900046014A003D2191400843A860C4F80880FF
:100AA000C4F80C90C4F804A000202060206840EA3C
:100AB00047602060206840EA0B402060206840F4D6
:100AC00000502060206840F400602060206840F4FE
:100AD00080602060206840F480702060206840F0D2
:100AE00010002060022338220321084600F066FA35
:100AF00000BF206800F001000028FAD1206840F013
:100B0000010020600648806840F080400449886009
:100B1000BDE8F09F006402403038024000600240AF
:100B2000002001402DE9F05F04460F4690469946AB
:100B3000DDE90AAB3E48844207D905463D480068D6
:100B400040F480003B49086006E03B4D39480068AE
:100B500040F400103749086000BF206800F0010031
:100B60000028FAD1601B10381821B0FBF1F0C6B292
:100B7000062E0ADBE868B11F01EB41014900103184
:100B80003D228A401043E86020E0042E09DBE8683B
:100B9000311F01EB41014A003D2191400843E860CB
:100BA00014E0022E0ADBA868B11E01EB41014900E6
:100BB00010313D228A401043A86007E0A86806EB88
:100BC00046014A003D2191400843A860C4F80880CE
:100BD000C4F80C90C4F804A000202060206840EA0B
:100BE0004760206020682060206840F480702060AA
:100BF00020682060206840F48060206020682060C9
:100C000020682060206840EA0B4020602068206057
:100C1000206840F0100020600223102219460020B6
:100C200000F0CCF9206820F001002060BDE8F09FC2
:100C30000064024030380240006002402DE9F05F5D
:100C400004460F4690469946DDE90AAB3D4884428A
:100C500007D905463C48006840F480003A490860DE
:100C600006E03A4D3848006840F400103649086004
:100C700000BF206800F001000028FAD1601B103886
:100C80001821B0FBF1F0C6B2062E0ADBE868B11FEE
:100C900001EB4101490010313D228A401043E860D8
:100CA00020E0042E09DBE868311F01EB41014A0016
:100CB0003D2191400843E86014E0022E0ADBA86859
:100CC000B11E01EB4101490010313D228A40104321
:100CD000A86007E0A86806EB46014A003D21914064
:100CE0000843A860C4F80880C4F80C90C4F804A0B5
:100CF00000202060206840EA476020602068206073
:100D0000206840F48070206020682060206840F4F3
:100D1000806020602068206020682060206840EAB1
:100D20000B402060206840F01000206002230C225D
:100D30000121002000F042F9206820F0010020602D
:100D4000BDE8F09F0064024030380240006002407D
:100D50001CB50848006840F01000064908600220F1
:100D600000900023012211460190034800F026F86C
:100D70001CBD0000303802400010024030B5CC10DD
:100D800000F1200353F824304C07E50E0F24AC404B
:100D9000A343CD1000F1200444F82530CC1000F11D
:100DA000200353F824304C07E40E02FA04F42343E2
:100DB000CD1000F1200444F8253030BD2DE9F04776
:100DC0000C46DDE90867002100258C4600BF60E085
:100DD0004FF0010808FA01F504EA050CAC4557D1BB
:100DE000D0F800804FEA410A4FF0030909FA0AF9E6
:100DF00028EA0908C0F80080D0F800804FEA4109CD
:100E000002FA09F948EA0908C0F80080012A01D06D
:100E1000022A27D1D0F808804FEA410A4FF003098F
:100E200009FA0AF928EA0908C0F80880D0F8088009
:100E30004FEA410906FA09F948EA0908C0F80880AA
:100E4000D0F804904FF0010808FA01F829EA0809DF
:100E5000C0F80490D0F8048003FA01F948EA0908C0
:100E6000C0F80480D0F80C804FEA410A4FF0030923
:100E700009FA0AF928EA0908C0F80C80D0F80C80B1
:100E80004FEA410907FA09F948EA0908C0F80C8055
:100E9000491C10299CD3BDE8F08700001CB507232E
:100EA000022208214FF4A87000F0CEF9022000F0D1
:100EB000C3F8A82001F0EAF84FF4E131542000F023
:100EC00013FF4FF4E1312A2000F09CFF21492A2032
:100ED00001F034F802202A211F4B204ACDE90010EE
:100EE00004211F48FFF71EFE032019211D4B1E4A37
:100EF000CDE9001004211A486038FFF79FFE00F08A
:100F00003DF8FFF725FF54214FF4FA6000F022FD71
:100F1000542141F2883000F069FD37214EF65F2000
:100F200000F04CFA1B214EF65F2000F0E3FA372167
:100F30004EF65F2000F088FDFFF7D8FA0120062169
:100F40000A4B0B4ACDE9001000210A48FFF752FD79
:100F50001CBD0000A0860100BC000020044400402D
:100F6000886002401400002004480040580000201F
:100F70004C20014010640240704700001CB50B4833
:100F8000006840F010000949086001200221002398
:100F90000246CDE9001006210548FFF70FFF0120AA
:100FA000044908600449C1F888021CBD3038024079
:100FB0000010024084024242000042422DE9F0410A
:100FC00005460E46C3F1040005FA00F40F2018414F
:100FD0003040044304F00F04D71702EBD7677F11AA
:100FE000BF0007F1E027D7F8007111464FEAE27C15
:100FF00002EBDC6C4FEA6C1CA2EB4C184FF0010CBE
:101000000CFA08FC47EA0C0710464FEAE27C02EBB8
:10101000DC6C4FEA6C1C4FEA8C0C0CF1E02CCCF829
:1010200000710448805C40EA041002498854BDE81D
:10103000F081000000E400E00146072323EA0102FA
:101040001202054B18684FF6FF031840034B184374
:101050001043014B186070470CED00E00000FA05EA
:101060004A0A52020243014B1A60704708ED00E041
:10107000724840787149897840EA0120C0F30A003B
:101080006F4908806D488078C0106C49C97840EA83
:101090004110C0F30A006A4948806848C07880114E
:1010A0006649097940EA81006449497940EA81202A
:1010B000C0F30A00624988806048407940105F4967
:1010C000897940EAC110C0F30A005D49C8805B48D5
:1010D000807900115949C97940EA0110C0F30A002A
:1010E000574908815548C079C0115449097A40EAE6
:1010F00041005249497A40EA4120C0F30A00504970
:1011000048814E48407A80104C49897A40EA8110E3
:10111000C0F30A004A4988814848807A401147490B
:10112000C97A40EAC1004649C8814448007B434926
:10113000497B40EA0120C0F30A00414908823F4848
:10114000407BC0103D49897B40EA4110C0F30A0052
:101150003B49488208460088A0F57A7000B23949B8
:10116000088037484088A0F57A7000B2488034483B
:101170008088A0F5967000B288800846B0F9040017
:10118000002801DA002088802D48C088A0F57A70F8
:1011900000B22C49C8802A48008AA0F57A7000B2B3
:1011A00008822748408AA0F57A7000B24882244815
:1011B0000089B0F57A7F02DD0120088102E000207D
:1011C000204908811E48C089B0F57A7F03DD0120DF
:1011D0001C49C88102E000201A49C881184840898A
:1011E00040F21451884203DD0120164948810CE089
:1011F00013484089B0F52F7F04DA4FF0FF301149D2
:10120000488102E000200F4948810D48808940F262
:101210001451884203DD01200A4988810CE0084806
:101220008089B0F52F7F04DA4FF0FF3005498881BF
:1012300002E000200349888170470000140000206C
:101240002E00002042000020F0B504460D46164650
:101250001F461448006840F0010012490860002051
:101260001049083108600F4800680F4908400D49CF
:1012700008600E48091D0860081F006820F48020DF
:10128000091F0860002007490C3108603B463246C0
:101290002946204600F00CF800210846FFF7E0FE42
:1012A000F0BD000000380240FFFFF6FE10300024C1
:1012B000F0B504460D46002100203D4E366846F448
:1012C00080363B4F3E6001E04E1CB1B2384E36686E
:1012D00006F400361EB941F6FF76B142F4DB41F662
:1012E000FF76B14201D1012060E0314E40363668D0
:1012F00046F080562E4F40373E602E4E366846F4FC
:1013000040462C4F3E602A4E0836366846F4144656
:10131000274F08373E60264E366826F08076244FE9
:101320003E6045EA84160127C7EB520746EA0746A6
:1013300046EA036646F480061D4F3F1D3E603E1F91
:10134000366846F080763F1F3E6000BF184E366814
:1013500006F00076002EF9D0174E366846F48076F7
:10136000154F3E603E46366846F400763E603E4687
:10137000366846F480663E603E46366846F00506AE
:101380003E600B4E0836366826F00306084F0837D5
:101390003E603E46366846F002063E6000BF044EA0
:1013A0000836366806F00C06082EF8D1F0BD0000AD
:1013B0000038024000700040003C02407CB504460A
:1013C0000D464948006840F001004749086046481A
:1013D0001438006840F010004349143908600120B7
:1013E000032100230222CDE900104FF4D4413F48ED
:1013F000FFF7E4FC012209213C48FFF7BFFC012272
:101400000B213A48FFF7BAFC01220D213748FFF7BC
:10141000B5FC01220E213548FFF7B0FC3448C46208
:101420000585008B40F06000314908830846008B39
:1014300040F4C04008830846008B40F00800088351
:101440000846008B40F4006008830846808B40F01B
:10145000600088830846808B40F4C040888308463B
:10146000808B40F0080088830846808B40F4006041
:1014700088830846008C40F0010008840846008CF0
:1014800008840846008C40F0100008840846008C50
:1014900008840846008C40F4807008840846008C5C
:1014A00008840846008C40F4805008840846008C6C
:1014B00008840846008840F08000088008460088BC
:1014C00008800B484430008840F40040A1F84400F4
:1014D0000846008840F00100088040F6B8304863B4
:1014E0008863C86308647CBD443802400010024031
:1014F000000001407CB504460D465348006840F0AA
:1015000002005149086050481038006840F001005E
:101510004D49103908600846006840F00200086034
:101520000120032100230222CDE90010C0214748F9
:10153000FFF744FC0120032100230222CDE9001023
:101540004348FFF73BFC022206214048FFF716FC08
:10155000022207213D48FFF711FC022200213C48EE
:10156000FFF70CFC022201213948FFF707FC39483C
:101570000460001F058037481438008840F0600080
:101580003449143908800846008840F4C040088077
:101590000846008840F0080008800846008840F4AB
:1015A00000600880081D008840F06000091D088068
:1015B0000846008840F4C04008800846008840F093
:1015C000080008800846008840F400600880081D74
:1015D000008840F00100091D088008460088088046
:1015E0000846008840F010000880084600880880FF
:1015F0000846008840F4807008800846008808800B
:101600000846008840F4805008800846008808801A
:1016100010482C38008840F080000E492C39088092
:101620000846008808800846008840F001000880CD
:1016300041F29410074908310860091D0860091D2E
:101640000860091D08607CBD40380240000002406F
:10165000000402402C04004010B52DED068BA64876
:10166000008A00F0010000287ED0A44800780028FD
:101670007BD0A349B1F9020000F085FE41EC1A0BC2
:101680009FEDA00B53EC102B00F094FE41EC190BD6
:101690009FED9E0B53EC102B00F08AFF41EC180BD2
:1016A00000F044FE80B29B4908609549B1F9020000
:1016B00000F069FE41EC1A0B9FED920B53EC102BDE
:1016C00000F078FE41EC190B9FED930B53EC102BBF
:1016D00000F084FD41EC180B00F028FE80B28D492B
:1016E000091D08608649B1F9020000F04CFE41EC8A
:1016F0001A0B9FED840B53EC102B00F05BFE41ECBA
:10170000190B9FED870B53EC102B00F067FD41EC9C
:10171000180B00F00BFE80B27E4908310860784952
:10172000B1F9020000F02FFE41EC1A0B9FED750B92
:1017300053EC102B00F03EFE41EC190B9FED7A0BA1
:1017400053EC102B00F034FF41EC180B00F0EEFDD1
:1017500080B270490C3108606949B1F9000000F0AD
:1017600012FE41EC1A0B01E0BCE089E09FED700B2A
:1017700053EC102B00F01EFE41EC190B9FED6E0B8D
:1017800053EC102B00F02AFD41EC180B00F0CEFDBD
:1017900080B26B4908605A49B1F9000000F0F3FDCE
:1017A00041EC1A0B9FED620B53EC102B00F002FE84
:1017B00041EC190B9FED600B53EC102B00F00EFD6C
:1017C00041EC180B00F0B2FD80B25D49091D0860C4
:1017D0004B49B1F9060000F0D6FD41EC1A0B9FED24
:1017E000540B53EC102B00F0E5FD41EC190B9FED71
:1017F000520B53EC102B00F0F1FC41EC180B00F0F5
:1018000095FD80B24E49083108603D49B1F90600A6
:1018100000F0B9FD41EC1A0B9FED450B53EC102B7A
:1018200000F0C8FD41EC190B9FED430B53EC102B5E
:1018300000F0BEFE41EC180B00F078FD80B240498C
:101840000C3108602E488088400000F6B83080B225
:101850003C4948632A488088400000F6B83080B28E
:10186000886327488088400000F6B83080B2C8639B
:1018700023488088400000F6B83080B2086420E039
:1018800041F216202349086041F25810091D0860F2
:1018900041F24820091D086041F24E10091D086000
:1018A00041F2941026490860091D0860091D08606E
:1018B000091D086040F6B830224948638863C86350
:1018C000086421480078401C1F49087008460078C9
:1018D000FA2807DB002008701C480068C0431C4938
:1018E000C1F884020448008A20F0010002490882FD
:1018F000BDEC068B10BD0000001000400D00002064
:10190000420000209A99999999990140000000009D
:101910000016B24034040140000000000058B140FD
:10192000000000000048B24000000000004EB1403E
:1019300048E17A14AE470140000000000094B14035
:1019400034040040000001400B00002084024242A9
:101950000000424270B505460C460F48006840F052
:1019600010000D4908600D48C5620485808940F06B
:1019700001000A4988810846008840F080000880FC
:101980000846008840F001000880022336221946EC
:101990000120FFF713FB70BD4038024000100040EB
:1019A0000E48008800F0010080B10D480078401C0E
:1019B0000B49087008460078322807DB00200870C1
:1019C00008480068C0430849C1F8880203480088F5
:1019D00020F0010001490880704700001014004009
:1019E0000C000020880242420000424270B50546C9
:1019F0000C461348006840F0200011490860114867
:101A00000560001F04800F482038008840F0010066
:101A10000C49203908800B482C38008840F08000A1
:101A200008492C3908800846008840F001000880E9
:101A30000223372200210846FFF7C0FA70BD0000DC
:101A4000403802402C1400407CB504460D465248F4
:101A5000006840F00200504908604F4814380068A0
:101A600040F004004C491439086001200321002390
:101A70000222CDE900104FF470714848FFF79EF93B
:101A8000032206214548FFF779F90322072143483D
:101A9000FFF774F9032208214048FFF76FF903228A
:101AA00009213E48FFF76AF93D480460001F0580A0
:101AB0003B481438008840F06000394914390880E8
:101AC0000846008840F4C04008800846008840F07E
:101AD000080008800846008840F400600880081D5F
:101AE000008840F06000091D08800846008840F426
:101AF000C04008800846008840F00800088008467A
:101B0000008840F400600880081D008840F0010053
:101B1000091D08800846008808800846008840F0B3
:101B2000100008800846008808800846008840F4B5
:101B3000807008800846008808800846008840F4C5
:101B40008050088008460088088015482C38008896
:101B500040F0800012492C3908800846008808802F
:101B60000F481830008840F400400D4918310880B3
:101B70000B482C38008840F0010009492C390880B6
:101B800041F29410064908310860091D0860091DDA
:101B90000860091D08607CBD44380240000802400E
:101BA0002C0401400549098801F0200129B10349AD
:101BB0008988C8B24100014A9180704700100140F5
:101BC0002948008800F02000002845D027480078E8
:101BD000002841D02448001D0088A52803D10120F9
:101BE0002349087016E02048001D00885A280ED1AD
:101BF0001F48007858B101201E4908701A48143057
:101C0000008840F0400018491431088002E00020AC
:101C1000174908701448001D008812281CD1164866
:101C20000078C8B113480078B0B10020124908709C
:101C30001049087000BF1148006800F0010000283A
:101C4000F9D10E48006840F001000C498839C1F80C
:101C500088000020054908700348008820F0200013
:101C6000014908807047000000440040080000203F
:101C7000090000200A0000201000002088600240B7
:101C80001648008800F0200000B314481430008883
:101C900040F040001149143108801048001D0088B0
:101CA0000F2813D10E48007801280FD100200C49CD
:101CB000087000BF0B48806A00F001000028F9D1CD
:101CC0000848806A40F0010006498862034800889D
:101CD00020F02000014908807047000000480040C3
:101CE0000E00002000600240F0B52DED028B83B0A5
:101CF00005460E463F4905FB01F000EE100AF8EEDE
:101D0000400A300100EE100AB8EE400A80EE801A58
:101D1000B0EE418ABCEEC80A10EE100A84B200EEA2
:101D2000104AB8EE400A38EE400AF3EE000A20EE00
:101D3000200ABCEEC00A10EE107A4FF6FF7000EADF
:101D40000414E01984B22C48006840F001002A49CC
:101D5000086029481430006840F01000264914310A
:101D600008600120022100230A46CDE900104FF44B
:101D7000C0612248FFF722F8072209211F48FEF719
:101D8000FDFF07220A211D48FEF7F8FF1A480C380C
:101D9000006840F0100018490C39086008460068D7
:101DA00020F01000086016480481808920F400406B
:101DB000134988810846808940F0080088810846D8
:101DC000808940F0040088810846808940F0200026
:101DD00088810223252203210846FFF7EFF80848EF
:101DE000808940F400500649888103B0BDEC028B25
:101DF000F0BD000040420F003038024000000240B9
:101E000000100140F0B52DED028B83B005460E4663
:101E1000464905FB01F000EE100AF8EE400A3001D9
:101E200000EE100AB8EE400A80EE801AB0EE418A49
:101E3000BCEEC80A10EE100A84B200EE104AB8EEEA
:101E4000400A38EE400AF3EE000A20EE200ABCEE0B
:101E5000C00A10EE107A4FF6FF7000EA0414E01981
:101E600084B23348006840F00100314908603048CE
:101E70001030006840F400302D4910310860012016
:101E8000022100230A46CDE900100C212948FEF763
:101E900095FF072202212748FEF770FF0722032142
:101EA0002448FEF76BFF22481038006840F40030E9
:101EB0001F49103908600846006820F400300860A7
:101EC0001D480480001D008820F400401A49091DA7
:101ED00008800846008840F00800088016480C304A
:101EE000008840F0400014490C3108801248001D61
:101EF000008840F004001049091D08800846008849
:101F000040F0200008800223262219461846FFF7D9
:101F100055F80948001D008840F400500649091D85
:101F2000088003B0BDEC028BF0BD000040420F0002
:101F3000303802400000024008440040F0B52DED6A
:101F4000028B83B005460E464A4905FB01F000EEC0
:101F5000100AF8EE400A300100EE100AB8EE400A0E
:101F600080EE801AB0EE418ABCEEC80A10EE100A6C
:101F700084B200EE104AB8EE400A38EE400AF3EEA2
:101F8000000A20EE200ABCEEC00A10EE107A4FF6CE
:101F9000FF7000EA0414E01984B23748006840F08A
:101FA00002003549086034481030006840F4802051
:101FB0003149103108600120022100230A46CDE991
:101FC00000104FF440612D48FEF7F8FE07220A2169
:101FD0002A48FEF7D3FE07220B212848FEF7CEFE43
:101FE00025481038006840F48020234910390860E3
:101FF0000846006820F48020086021480480002002
:102000001F49091D0880091D0880091D08801C48FA
:10201000001D008820F400401949091D0880084669
:10202000008808800846008840F480600880081D09
:10203000008840F40050091D0880081F008840F007
:102040000400091F08800846008840F0200008802E
:102050000223272203210846FEF7B0FF0848001D8F
:10206000008840F400500649091D088003B0BDEC0B
:10207000028BF0BD40420F003038024000040240A5
:1020800008480040014600BF704700004FF0E021C3
:10209000096921F004014FF0E0221161C21700EB41
:1020A0005272C2F3C702074B1A701946097801EB46
:1020B0004102C2EBC1114FF6FF7202EAC101024AAE
:1020C00011807047000000200200002070B5044617
:1020D0004FF4077094FBF0F0C6B24FF4077094FB16
:1020E000F0F100FB114085B205E04FF4077000F0FD
:1020F00009F8701EC6B2002EF7D115B1284600F0BF
:1021000001F870BD01460D4A12884A434FF0E023A2
:102110005A6100229A6101221A6100BF4FF0E02249
:10212000106900F001021AB100F48032002AF5D0E3
:1021300000224FF0E0231A619A61704702000020EC
:1021400000BF054A128802F04002002AF9D0C2B24C
:10215000014B9A80704700000010014008B500BF95
:10216000FEF79CFEFEF708FF1FE0C820FFF7AEFF5A
:102170000E48006800900D48001F0368001F0268A9
:10218000001F01680AA0FEF777F80E48006800906B
:102190000C48001F0368001F0268001F01680AA0A6
:1021A000FEF76AF806A0FEF767F8DEE74004014094
:1021B00074696D38202564202564202564202564F9
:1021C0000D0A00004004004074696D33202564202E
:1021D00025642025642025640D0A000010B591EACD
:1021E000030F48BF83F0004300F1F681841A71EBBE
:1021F000030C05D2121943EB0C03001B61EB0C011D
:10220000DFF824E14FEA1154A4EB135C1EEA430FFC
:1022100018BF9EEA445F73D023EA0E03DCF1200E60
:1022200021EA045143F4801332D322FA0CFE10EB5E
:102230000E0023FA0CFE41EB0E01CCF1200E03FA46
:102240000EFE10EB0E0051F10001B1F5801FCCF134
:10225000200E32D201EB045112FA0EF2BDE810400A
:1022600058BF7047401C38BF5FEA420218BF704732
:10227000002814BF20F0010041F100014FEA4103A2
:1022800013F5001F38BF7047A1F1C04100F08AB9B3
:10229000012A43EB0302ACF1200CDCF11F0E32BF2C
:1022A0004FF0000E23FA0CF310EB030041EB045146
:1022B000B4EB115FD0D0A1EB045101F580114908B6
:1022C0005FEA300001EB04510ED350F1000038BF3B
:1022D00012FA0EFE08D1BDE81040C9E7401C38BF15
:1022E0005FEA4202CAD1C3E7BDE810404FEA4103AA
:1022F00013F5001F38BF7047A1F1C04100F052B97B
:102300009EEA445F08D011EA5E0FBDE8104004BFAA
:1023100001F0004100207047BDE8104070B500F0AA
:10232000F3F800BF64FBBE3E0000E0FF4FEA11532C
:10233000A3F58063D3F11E03A8BFD3F1200C08DB03
:102340004FF0004242EAC12252EA505232FA03F000
:10235000704709420BD4102BC4BF0020704703F50F
:10236000787CBCF1FF3F05D04FF0FF3070474FF055
:102370000000704770B500F0C7F800BF4992248094
:1023800000207047F0E710F0004248BF4042B0FA2A
:1023900080F310FA03F10AD0C3F11D0303F5806343
:1023A0004FEA415002EB035202EBD12170474FF04C
:1023B00000007047DFF848C170B51CEA111E1EBF4F
:1023C0001CEA13159EEA0C0F95EA0C0F00F06F80C3
:1023D00081EA030423EA4C134EEAD47E21EA4C112D
:1023E00041F4801143F48013AE44A1FB024CA0FBE6
:1023F0000365AEF17F7E361955EB0C05A1FB034C4E
:102400004CF10003A0FB021C16EB0C06654153F1D6
:102410000003094218BF46F0010613F4007F0BD1F8
:102420004FEA03314FEA0530340341EA155140EADF
:1024300016506FF003020AE04FEAC3214FEAC520AD
:10244000F40241EA555140EA56506FF0020202EBA5
:102450002E4201EB025585EACE710AD05FEA440CA8
:1024600018BF24F0004450F1000041F1000120EABF
:10247000D47040F2FE7C624500D270BDA84214BF09
:102480004FF080444FF04044002E08BF0024BEF1BE
:10249000806FA8BFA1F1C041BDE8704080F282808A
:1024A0004FF0000001F1C04101F0004170479EEA89
:1024B0000C0F0CEA131518BF95EA0C0F06D04FF05D
:1024C000000081EA030E0EF0004170BD00F01CF820
:1024D0008900013E00F007B800F009B84FEA430C4C
:1024E0005FEA5C5C08D081EA030100F05BB84FEA68
:1024F000410C5FEA5C5CF6D14FF000000149704787
:102500000000FF070000F87F0EF1020E2EF0030E10
:102510005EF8046B364205D4012A43EB030515F53A
:10252000001F12D8012841EB010C1CF5001F0CD82C
:102530000ED14FEAD17C15F5001F0CEB4C0C0CF1C1
:10254000020C08BF4CEBD37C04E04FF0080C01E018
:102550004FEAD37C0CEB4C0526FA05F606F007068D
:10256000B6F1040C06D20EEB860CBDE870404CF0C0
:10257000010C6047DFE80CF0090B02024FF000414C
:102580004FF00000A1F5002170BD1946104601284A
:1025900051EB010418BFD4F5001484BF002001F0F2
:1025A000004170BD0808A0F500114FEA31017047E5
:1025B00091EA030F10B581F000413FF517AE83F0AB
:1025C000004300F009B8000010B591EA030F48BFBE
:1025D00083F000433FF50AAE841A71EB030C07D277
:1025E00012198CF0004C43EB0C03001B61EB0C0147
:1025F000DFF8A4E14FEA1154A4EB135C1EEA430F89
:1026000018BF9EEA445F00F0B08023EA6E03524296
:1026100021EA0451C3EB6E0338BF5B1EDCF1200ED0
:1026200025D322FA0CFE10EB0E0043FA0CFE41EB10
:102630000E01CCF1200E03FA0EFE10EB0E0051F14C
:102640000001CCF1200E29D412FA0EF201EB045154
:10265000BDE8104058BF7047401C1CBFB2F1004F8E
:10266000704700280CBF491C20F00100704712EB96
:10267000020E43EB030218BF4FF0010E4EEA420276
:10268000ACF1200CDCF11E0E54D943FA0CFE10EB19
:102690000E0051F1FF31CCF11E0ED5D50EF1010E19
:1026A00012FA0EFE404141EB010101EB445C5FEA8E
:1026B0005C5C10D910EBDE7001EB045138BFBEF149
:1026C000004FBDE8104018BF704700280CBF491CE0
:1026D00020F00100704730D24FEAD42C11F50011E0
:1026E00024F400641BD0B1FA81F20B3AA41AA41EA0
:1026F000D2F12003914030FA03F31943904001EBEB
:10270000CC71002C01EB0451BDE81040A8BF70470C
:1027100001F1C0414FF0000001F000417047B0FAF4
:1027200080F310FA03F100D110BDE41A173C4805FC
:10273000C90AE4E701EB045110BD491001EB045153
:10274000BDE810404FEA300002E04FF00001704752
:102750004A0008BF0042F8D0B2F5001F28BF7047FA
:1027600001F000414FF0000070479EEA445F07D03F
:1027700011EA5E0FBDE8104004BF00210020704741
:10278000BDE8104070B5FFF7BFFE00BF40DFF63E6A
:1027900083F00041104670470000E0FF4FF04070AA
:1027A000E1EE100A70470000C82700080000002072
:1027B00014000000C4010008DC27000814000020F9
:1027C0004C050000E00100080000000000000000CF
:0C27D000010000000000010001000000FA
:040000050800018965
:00000001FF
