:020000040800F2
:10000000285C0020F502000803030008050300082F
:1000100007030008090300080B03000800000000A4
:100020000000000000000000000000003D02000889
:100030000F030008000000009102000839130008B7
:100040001503000815030008150300081503000830
:100050001503000815030008150300081503000820
:100060001503000815030008150300081503000810
:10007000C50B000815030008150300081503000848
:100080002D0C000815030008850900081503000859
:1000900015030008150300081503000815030008E0
:1000A00015030008150300081503000815030008D0
:1000B00015030008150300081503000815030008C0
:1000C00015030008150300081503000815030008B0
:1000D0001503000895140008B51400083915000828
:1000E0001503000815030008150300081503000890
:1000F0001503000815030008150300081503000880
:10010000150300081503000815030008150300086F
:100110001503000815030008150300082114000842
:10012000150300081503000815030008150300084F
:10013000150300081503000815030008150300083F
:10014000150300081503000815030008150300082F
:10015000150300081503000815030008150300081F
:10016000150300081503000815030008150300080F
:1001700015030008150300081503000815030008FF
:10018000150300081503000800F002F800F047F816
:100190000AA090E8000C82448344AAF10107DA45E2
:1001A00001D100F03CF8AFF2090EBAE80F0013F0ED
:1001B000010F18BFFB1A43F0010318476037000016
:1001C00080370000103A24BF78C878C1FAD85207A7
:1001D00024BF30C830C144BF04680C6070470000C1
:1001E0000023002400250026103A28BF78C1FBD840
:1001F000520728BF30C148BF0B607047642900F028
:100200001D81752900F01A81732900F09282002067
:1002100070471FB503F07CFB1FBD10B510BD00F08B
:10022000FCFA1146FFF7F5FF01F0C4FB00F01AFBE2
:1002300003B4FFF7F2FF03BC01F01CFB2A4B196863
:100240000868B0E8F04F80F30988BFF36F8F4FF074
:10025000000080F311887047000000000648006825
:10026000006880F3088862B661B6BFF34F8FBFF3B2
:100270006F8F00DF00BF00BF08ED00E0DFF80C006B
:10028000016841F470010160704700BF88ED00E033
:10029000EFF30980BFF36F8F134B1A681EF0100F36
:1002A00008BF20ED108A20E9F04F106008B44FF02D
:1002B000500080F31188BFF34F8FBFF36F8F02F0B0
:1002C000E7FC4FF0000080F3118808BC196808684B
:1002D000B0E8F04F1EF0100F08BFB0EC108A80F3AA
:1002E0000988BFF36F8F704728000020EFF3058067
:1002F000704700000B48016841F4700101600A4832
:100300000047FEE7FEE7FEE7FEE7FEE7FEE7FEE763
:10031000FEE7FEE7FEE7000004480549054A064BF4
:100320007047000088ED00E0890100082856002091
:10033000285C002028580020285800207047000022
:100340000FB4044910B503AA029800F0F7F910BCE5
:100350005DF814FB1C0000200FB41CB5074B06AA67
:100360007B4469460090059800F0B9F90020694681
:1003700000F0C8F91CBC5DF814FB0000A1030000EC
:100380002DE9F0410E460446002020622046E16837
:10039000884730B3252805D0D4E901219047206A49
:1003A000401CF2E7E168204600278847050018D086
:1003B000A5F14100192802D820354FF400673246D4
:1003C000294620462760FFF719FF40B1012804D0D5
:1003D000F61D26F007060836D8E7361DD6E728466C
:1003E000DAE7206ABDE8F08170B50C460546012ABF
:1003F00005D02878800600D5EA69002302E00123B1
:1004000005E05B1C934202D2E05C0028F9D1A869A8
:10041000E618C01AA861286A184428622846AFF373
:10042000008004E0D5E9012114F8010B9047B442A3
:10043000F8D32846AFF3008070BD00002DE9F041ED
:100440000646002410687529314616A510D0AFF372
:100450000080002802DA404213A507E031688A07CD
:1004600001D512A502E0490704D511A5012401E038
:10047000AFF3008000210A2206F1240709E0B0FB57
:10048000F2FCB0FBF2F302FB1C003030785418464B
:10049000491C0028F3D123462A463046BDE8F041E6
:1004A00000F0BEB8000000002D0000002B0000008E
:1004B0002000000040EA0103024630B59B0710D13E
:1004C0004FF0013400E008C208C91D1B9D4315EA26
:1004D000C41FF8D013F0FF0102F8011B0DD01B0A56
:1004E000F8E711F8013B002B02F8013B05D011F8A9
:1004F000013B002B02F8013BF3D130BD10B5431C8A
:1005000002E010F8011B71B18107FAD14FF00132FE
:1005100002C88C1A8C4314EAC211F9D0C01A0A0618
:1005200003D0C01E10BDC01A10BD0A0401D0801E29
:1005300010BD0902FCD0401E10BD032A40F23080DD
:1005400010F0030C00F0158011F8013BBCF1020F14
:10055000624498BF11F801CB00F8013B38BF11F895
:10056000013BA2F1040298BF00F801CB38BF00F8AC
:10057000013B11F0030300F0F380083AC0F008805B
:1005800051F8043B083A51F804CBA0E80810F5E70D
:10059000121D5CBF51F8043B40F8043BAFF30080F0
:1005A000D20724BF11F8013B11F801CB48BF11F865
:1005B000012B24BF00F8013B00F801CB48BF00F835
:1005C000012B704702F0FF0343EA032242EA024292
:1005D00000F002B84FF000020429C0F0128010F0C1
:1005E000030C00F0F180CCF1040CBCF1020F18BF39
:1005F00000F8012BA8BF20F8022BA1EB0C0100F0A2
:10060000E3B85FEAC17C24BF00F8012B00F8012B9E
:1006100048BF00F8012B704770477047704770471C
:100620002DE9F0470D4699469246044600F124080C
:100630000168880604D5E06921F01001216000E01E
:100640000120A84201DD471B00E00027A1697A19BB
:1006500002EB0900081AA0612078C00602D42046E7
:10066000AFF30080002608E0D4E901211AF8060063
:100670009047206A401C761C20624E45F4DB2078AF
:10068000C0060AD52046AFF3008006E0D4E9012178
:1006900030209047206A401C2062381EA7F10107D5
:1006A000F4DC07E0D4E9012118F805009047206A3E
:1006B000401C2062281EA5F10105F3DC2046AFF3A3
:1006C00000802078000602D50220BDE8F0870120D6
:1006D000FBE7000001694A1C02610878704700B519
:1006E0008FB0CDE901310021059105497944CDE96B
:1006F000031011466846FFF743FE0FB000BD00002F
:10070000E5FFFFFF0A6802F8010B0A60704710B5A9
:10071000436913B1AFF3008001E0FFF765FE0120EC
:1007200010BD127800F124010A7000224A700122E3
:10073000EDE711684FF0FF32E9E70000074B70B5B5
:100740000D467B44FFF7CBFF0446284600F061F8D6
:1007500010B14FF0FF3070BD204670BD5B1200003D
:1007600010B5203AC0F00B80B1E81850203AA0E84C
:100770001850B1E81850A0E81850BFF4F5AF5FEA80
:10078000027C24BFB1E81850A0E8185044BF18C933
:1007900018C0BDE810405FEA827C24BF51F8043BDA
:1007A00040F8043B08BF7047D20728BF31F8023B2E
:1007B00048BF11F8012B28BF20F8023B48BF00F8C2
:1007C000012B70474FF0000200B513469446964641
:1007D000203922BFA0E80C50A0E80C50B1F1200154
:1007E000BFF4F7AF090728BFA0E80C5048BF0CC002
:1007F0005DF804EB890028BF40F8042B08BF704760
:1008000048BF20F8022B11F0804F18BF00F8012BD1
:100810007047007B00F080007047754600F02CF8B0
:10082000AE4605006946534620F00700854618B0DD
:1008300020B5FFF771FDBDE820404FF000064FF0F6
:1008400000074FF000084FF0000B21F00701AC4605
:10085000ACE8C009ACE8C009ACE8C009ACE8C00924
:100860008D46704710B50446AFF300802046BDE8C2
:100870001040FFF7DDBC000000487047C85500205D
:100880007CB53D48016841F4807101603A481438F4
:10089000016841F00401016000250120CDE900500C
:1008A0002B4603223F21354800F056FB32482038C2
:1008B000016841F480710160016821F48071016078
:1008C0002F4C4FF44030C4F804036560A5606068A5
:1008D00020F080706060606840F4807060606068E4
:1008E00040F020006060022312220321012000F06A
:1008F00005FCE560E06840F00700E060E06840F07B
:100900003800E060E06840F4E070E060E06840F4E7
:100910006060E060E06840F4E040E060E06840F47F
:100920006030E060E06A20F47000E062E06A40F469
:10093000C000E0626563606B40F00A006063606B5A
:1009400040F4B0706063606B40F440506063606B73
:1009500040F4D0206063606B40F460006063606BC3
:1009600040F0F0506063A06840F00200A060A06812
:1009700040F00100A0607CBD443802400008024005
:10098000002001400948016889070ED5016821F05F
:1009900002010160816821F4807181608168C9056C
:1009A000FCD4816841F4807181607047002001406F
:1009B0000024104EDFF84080104F4FF0FF39012522
:1009C00021460FA0FFF7BCFC4946012001F008FDBD
:1009D000040006D000F01EF800B1B57088F8005091
:1009E000F570D7F88802C043C7F88802012001F0EB
:1009F00005FFE5E70000002018000020000042424B
:100A0000414852532056616C75653D2025640D0A9E
:100A100000000000002010B5444A01460346145C63
:100A2000401C2144C0B289B21028F8D3C8B2117C4E
:100A3000884279D1D078917840EA012000B21843F9
:100A40000104C0F30E0001D5404200B200EE100ACE
:100A50003649F8EEC00AB2EE040A183980EE801A60
:100A600081ED001A5079137940EA032000B20304A3
:100A7000C0F30E0001D5404200B200EE900AF8EE3D
:100A8000E00A80EE801A81ED011AD379907943EA69
:100A9000002000B20304C0F30E0001D5404200B2B2
:100AA00000EE900AF8EEE00A80EE801A81ED021A5C
:100AB000507A137A40EA032000B20304C0F30E0018
:100AC00001D5404200B200EE900AF8EEE00A80EE56
:100AD000801A81ED031AD07A937A40EA032000B29B
:100AE0000304C0F30E0001D5404200B200EE900AAC
:100AF000F8EEE00A80EE801A81ED041A507B127B3A
:100B000040EA022000B20204C0F30E0001D54042C8
:100B100000B200EE900A0120F8EEE00A80EE801AA2
:100B200081ED051A10BDFFE70020FBE790020020D1
:100B300003480022026142615321312000F086BC4B
:100B4000000000201CB510490520CDE9000100235C
:100B500096220EA1114802F053FC0B490620091DF4
:100B6000CDE90001002396220DA1114802F048FCB6
:100B7000054901200831CDE90001002364220DA1BF
:100B80000F4802F03DFC1CBD0400002053425553A9
:100B90005F646174615F7461736B00006D110008C4
:100BA000414852535F646174615F7461736B00000C
:100BB000B109000844656275675F7461736B00007A
:100BC000890E0008144808B50168090522D5816816
:100BD00041F40061816011490A8822F040020A80D4
:100BE000816A21F0010181620D48007E002811D147
:100BF0000C48006800280DD0694601F0CDFE009831
:100C0000002807D008494FF080500860BFF34F8F8D
:100C1000BFF36F8F08BD0000006002401448004021
:100C20005C0200200400002004ED00E0164808B536
:100C30004168090527D550F80C1F41F40061016097
:100C400012490A8822F040020A80C16F21F0010196
:100C5000C1670F484178A12915D190F82900AA2829
:100C600011D10C48006800280DD0694601F094FEAF
:100C70000098002807D008494FF080500860BFF363
:100C80004F8FBFF36F8F08BD0060024014440040D7
:100C9000900200200800002004ED00E02DE9F0475C
:100CA0000446DDE908693848384D844203D92F6885
:100CB00047F4800703E036482F6847F400172F6099
:100CC0002568ED07FCD1251A1827103DB5FBF7F56F
:100CD000EDB23D27062D08D3D0F80CC005EB450535
:100CE0004FF0EC0808EB450507E0042D0BD3D0F8D6
:100CF0000CC02D1F05EB45056D00AF404CEA070CFD
:100D0000C0F80CC010E0D0F808C0022D05EB450576
:100D100004D34FF0040808EB450500E06D00AF4038
:100D20004CEA070CC0F808C0A260E36066600020CF
:100D30002060206840EA41602060206820602068D0
:100D400040F48070206020682060206840F480605B
:100D500020602068206020682060216841EA094006
:100D6000206020682060206840F01000206004238C
:100D700010220021062000F0C1F9206820F00100B7
:100D80002060BDE8F0870000006402403038024077
:100D9000006002402DE9F0470446DDE90869374864
:100DA000374D844203D92F6847F4800703E0354864
:100DB0002F6847F400172F602568ED07FCD1251A2E
:100DC0001827103DB5FBF7F5EDB23D27062D08D3EA
:100DD000D0F80CC005EB45054FF0EC0808EB4505D5
:100DE00007E0042D0BD3D0F80CC02D1F05EB4505F3
:100DF0006D00AF404CEA070CC0F80CC010E0D0F812
:100E000008C0022D05EB450504D34FF0040808EB9C
:100E1000450500E06D00AF404CEA070CC0F808C083
:100E2000A260E360666000202060206840EA4160C4
:100E3000206020682060206840F480702060206876
:100E40002060206840F48060206020682060206876
:100E50002060216841EA09402060206840F01000CD
:100E6000206004230C220021052000F047F92068AF
:100E700020F001002060BDE8F0870000006402401F
:100E800030380240006002404FF4C875134C00F047
:100E9000FFF8012802D002280DD01AE02946104898
:100EA000FFF798FB0E4801F019FD0EA0FFF748FA76
:100EB0000B4915A00BE0606801F0D8FA014614A0B8
:100EC000FFF73EFAA06801F0D1FA014615A0FFF73E
:100ED00037FA642001F092FCD9E7000000000020FE
:100EE000A4000020C8CECEF1C3FB090909D4CBD0A1
:100EF000D0CAB1BCE409D4CBD0D0CBF9D5BCB0D9E1
:100F0000B7D6B1C80D0A000025730D0A0000000015
:100F1000534255535F486967685F6D61726B3D2549
:100F2000640D0A00414852535F486967685F6D610C
:100F3000726B3D25640D0A00CB0810B500EB8300F1
:100F4000036A4907C90E0F248C40A3430362036A56
:100F50008A401343036210BD2DE9F04F9946DDE945
:100F600009AC00234FF0010B4FF0030E0BFA03F511
:100F700001EA0504AC422AD107685C000EFA04F6C7
:100F8000B7430760076802FA04F847EA08070760F2
:100F9000012A01D0022A12D18768B7438760D0F8AE
:100FA00008800AFA04F748EA0708C0F8088047688A
:100FB000AF434760476809FA03F52F434760C568A8
:100FC000B543C560C5680CFA04F42543C5605B1CD5
:100FD000102BCBD3BDE8F08F1CB5072302220821CC
:100FE0004FF4A87000F082F9042000F0A5F8A820C2
:100FF00000F042FC4FF4E1342146542000F0C4FAE2
:1010000021462A2000F036FB10492A2000F0AEFBD2
:1010100002212A20CDE900010D4B0E4A04210E4881
:10102000FFF73CFE03211920CDE900010A480B4BD4
:101030000B4A04216038FFF7ADFE00F043F800F0E2
:1010400011F8BDE81C40FFF71BBC0000A0860100A2
:101050009002002004440040886002405C020020AE
:10106000044800401CB50848016841F010010160C7
:1010700001210220CDE9000100231A46182103486E
:10108000FFF76AFF1CBD000030380240001002402C
:1010900010B50B4CD4F80C0210B1D4F8100240B9C2
:1010A000082000F003FCD4F80C0220B1D4F81002A0
:1010B00018B1002010BD012010BD022010BD00009D
:1010C000000042421CB50A48016841F0100101606D
:1010D00001240220CDE90004002322460621054810
:1010E000FFF73AFF0448C0F88442C0F888421CBDAC
:1010F00030380240001002400000424230B5C3F1D7
:101100000404A0400F24DC400C400443500980003C
:1011100000F1E020D0F8001102F01F050123AB40E0
:101120001943C0F8001102F1E02292F8000440EAED
:10113000041082F8000430BD064A0721814310687C
:101140004FF6FF031840044B184340EA012010609B
:10115000704700000CED00E00000FA056FF3080195
:10116000014301480160704708ED00E00B4D0C4E53
:101170004FF0FF3701243946012001F031F918B151
:1011800000F010F82C706C70D6F88402C043C6F8DA
:101190008402012001F032FBEDE700000000002096
:1011A00000004242F0B550484178827841EA02217D
:1011B000C1F30A02A0F128010A808278C378D2081C
:1011C00042EA4312C2F30A024A80C27803799209C2
:1011D00042EA8302437942EA8322C2F30A028A8006
:1011E00042798379520842EAC312C2F30A02CA80E2
:1011F0008279C379120942EA0312C2F30A020A8110
:10120000C279037AD20942EA4302437A42EA43228C
:10121000C2F30A024A81427A837A920842EA83122E
:10122000C2F30A028A81827AC37A520942EAC3026D
:10123000CA81027B437B42EA0322C2F30A020A828A
:10124000427B807BD20842EA4010C0F30A00488209
:101250000A8801F11400A2F57A7202804A88A2F588
:101260007A7242808A88A2F596728280B0F9043040
:101270000022002B00DA8280CB88A3F57A73C3802A
:101280000B8AA3F57A7303824B8AA3F57A734382A0
:101290000D894FF47A740123A54201D9038100E03E
:1012A0000281CD89A54201D9C38100E0C2814D8967
:1012B00040F214544FF42F774FF0FF36A54201D976
:1012C000438105E04D89BD4201D2468100E0428163
:1012D0008D89A54201D98381F0BD8989B94201D2A6
:1012E0008681F0BD8281F0BD5C020020F0B50F4C1C
:1012F000256845F0010525600C4E0025083635604F
:1013000026680B4F3E402660271D0A4E3E60266829
:1013100026F480262660054C0C34256000F016F873
:10132000BDE8F04000210846FFF718BF0038024032
:10133000FFFFF6FE1030002410B502F08DF80128F2
:1013400003D0BDE8104001F07BBD10BDF0B5304DBD
:10135000064600242F68204647F480372F6041F668
:10136000FF7701E0641CA4B2D5F800C05FEA8C3CB2
:1013700001D4BC42F6D3BC4201D10120F0BD244CC3
:101380004034276847F080572760224C276847F48D
:10139000404727601E4C0834276847F414472760ED
:1013A0002F6827F080772F6041EA86111A4E520885
:1013B00006EB0242114341EA0361221F41F480011E
:1013C0001160296841F08071296029688901FCD584
:1013D00012490A6842F480720A600A6842F4007294
:1013E0000A600A6842F480620A600A6842F00502F4
:1013F0000A60216821F003012160216841F00201A7
:1014000021602168C1F381010229FAD1F0BD0000F9
:1014100000380240007000400000FFFF003C024026
:1014200008490888C00707D0074802684368521C6B
:1014300043F1000302604360088820F00100088047
:101440007047000010140040100000200F4A13687D
:1014500043F0200313600E4A1060101F01800C48F7
:101460002038018841F00101018009482C380188A9
:1014700041F080010180018841F0010101800223D7
:10148000372200210846FFF739BE000040380240ED
:101490002C14004006480188890603D58188090676
:1014A000C90D8180018821F0200101807047000072
:1014B0000010014030B51C4C208880062ED51B4AF8
:1014C000107858B3201D058801210023A52D03D0D5
:1014D00005885A2D02D00BE051700AE055783DB1D5
:1014E0009170114914310D8845F040050D8000E0E0
:1014F00053700088122811D10D48017871B191788C
:1015000061B103700B489370D0F88810C907FBD104
:1015100050F8881F41F0010101601370208820F00D
:101520002000208030BD0000004400401800002052
:101530000300002000600240104A1088800617D582
:101540000E481430018841F040010180101D0088D0
:101550000F280DD10A480178012909D10021017015
:101560000848816AC907FCD1816A41F001018162A2
:10157000108820F0200010807047000000480040D4
:1015800001000020006002407CB5364A504300EE66
:10159000100A08014FF6FF72F8EE400A00EE100A3A
:1015A000B8EE401A80EE810AFCEEC00A10EE900AF6
:1015B00080B200EE900A02EA0010F8EE600A30EE07
:1015C000600AF3EE000A20EE200ABCEEC00A10EE1C
:1015D000101A45182448016841F0010101602248B1
:1015E0001430016841F01001016002200121CDE9B1
:1015F00000011E4C024600234FF4C0612046FFF755
:10160000ABFC072209212046FFF796FC07220A219E
:101610002046FFF791FC14480C38016841F0100196
:101620000160016821F010010160114C2581A08941
:1016300020F40040A081A08940F00800A081A0898A
:1016400040F00400A081A08940F02000A081042384
:10165000252200210920FFF751FDA08940F4005008
:10166000A0817CBD40420F003038024000000240A3
:10167000001001407CB5394A504300EE100A0801C1
:101680004FF6FF72F8EE400A00EE100AB8EE401A6C
:1016900080EE810AFCEEC00A10EE900A80B200EEE5
:1016A000900A02EA0010F8EE600A30EE600AF3EEEB
:1016B000000A20EE200ABCEEC00A10EE101A4418F0
:1016C0002748016841F00101016025481030016898
:1016D00041F40031016002200121CDE90001214DDA
:1016E000024600230C212846FFF736FC0722022180
:1016F0002846FFF721FC072203212846FFF71CFCA0
:1017000017481038016841F400310160016821F484
:101710000031016014480480041D208820F400403A
:101720002080208840F0080020800F480C3001887D
:1017300041F040010180208840F004002080208892
:1017400040F0200020800423262200210620FFF7FD
:10175000D5FC208840F4005020807CBD40420F0022
:101760003038024000000240084400407CB53D4A49
:10177000504300EE100A08014FF6FF72F8EE400ADF
:1017800000EE100AB8EE401A80EE810AFCEEC00AA4
:1017900010EE900A80B200EE900A02EA0010F8EE15
:1017A000600A30EE600AF3EE000A20EE200ABCEE7A
:1017B000C00A10EE101A44182B48016841F00201CB
:1017C000016029481030016841F480210160022045
:1017D0000121CDE90001254D024600234FF440616F
:1017E0002846FFF7B9FB07220A212846FFF7A4FB8A
:1017F00007220B212846FFF79FFB1B481038016882
:1018000041F480210160016821F4802101601848C1
:101810000480174C0020241D2080211D08800A1DF3
:101820001080208820F4004020802088208020889C
:1018300040F480602080088840F4005008802088B0
:1018400040F004002080208840F020002080042305
:10185000272200210520FFF751FC208840F400508A
:1018600020807CBD40420F0030380240000402401E
:1018700008480040704700004FF0E0210A6942F03C
:1018800004020A61084A4FF47A73107010FB03F0E7
:10189000012353800A6942F002020A614861086923
:1018A00040F00100086170472000002070B5044638
:1018B00001F0D2FD01280CD0094D6888844203D381
:1018C000B4FBF0F000F09AFF6888B4FBF0F100FB85
:1018D00011444FF47A706043BDE8704000F002B8E4
:1018E0002000002070B54FF0E02500216C69094A06
:1018F000AB6912785043AA699A42FCD002D2A3EB9A
:10190000020302E0A4EB0206334419441346814269
:10191000F1D370BD2000002070B5050005D140F264
:10192000FB4214A118A0FEF70BFD1B4E3068854248
:1019300001D1002070BD00F02DFE6C6900F066FE44
:10194000F06B844202D0306C844201D1022070BD21
:101950001248844204D1A86A0028F7D1032070BD40
:101960000E481438844202D00CB1012070BD04200E
:1019700070BD00002E2E5C4672656552544F535C5C
:101980007461736B732E63004572726F723A2573C4
:101990002C25640D0A000000280000208C05002082
:1019A00003490A885206FCD5C2B28A8070470000FB
:1019B0000010014010B5FFF70FFBFFF7C3F801F06F
:1019C00013F9002010BD00002DE9F041184E0F461C
:1019D0000446F5683068001D00F036FD38B93068FF
:1019E00090F82C1001208840316981433161601CDE
:1019F00007D137B13168BDE8F0410E48091D00F04C
:101A0000BDBD30682C44AC424460316805D2306CB6
:101A1000BDE8F041091D00F099BDF06B091D00F013
:101A200095FDB06A844200D2B462BDE8F081000046
:101A3000280000208C0500202DE9F041054600F02B
:101A4000A9FD2D4EB068401CB06030682B4F10B11E
:101A5000706930B32BE03560B068012827D10024CD
:101A600004EB840007EB800000F062FD641C202C76
:101A7000F6D3234800F05CFD2148143000F058FDF7
:101A80001F48283000F054FD1D483C3000F050FD48
:101A90001B48503000F04CFD1948F063143030649E
:101AA00005E03068E96AC06A884200D83560706A2B
:101AB0000121401C7062A864E86A326981401143C8
:101AC000316100EB800007EB8000291D00F056FD1E
:101AD00000F09CFD706900280CD03068E96AC06A8B
:101AE000884207D207494FF080500860BFF34F8FFC
:101AF000BFF36F8FBDE8F08128000020BC020020FA
:101B00003C05002004ED00E010B500F043FD0C4C56
:101B1000206880B90B4800F00BFD0A48143000F033
:101B200007FD0848E06014302061002210210520E4
:101B300001F09CF92060BDE8104000F067BD000096
:101B40006C000020A005002070B5124E124D1CE064
:101B500001F096F8306820B1002401F0ABFDA4B983
:101B600001E00124F9E700F015FDF068C468201DCC
:101B700000F06AFCA868401EA8606868401E6860A3
:101B800000F044FD204600F052F868680028DFD1DC
:101B900070BD0000780500202800002030B4026CE1
:101BA0000B46002A0BD0C1681144C1604468A142B1
:101BB00001D30168C16030BC1846FEF7BEBC30BC22
:101BC00070472DE9F041856B174604460026026CEC
:101BD00082B1C7B1E068FEF7B0FCE168206C091A79
:101BE000E1602268914202D26168081AE060022F27
:101BF00016D017E02068A8B9606801F0B5FC064669
:101C0000002060600EE0A068FEF797FC216CA068E1
:101C10000844A0606168884204D32068A06001E0A5
:101C200005B16D1E6D1CA5633046BDE8F08110B591
:101C30000446006B00F01CFD2046BDE8104000F09B
:101C400017BD000010484FF4A041420706D0C01D48
:101C50000D4920F00700411AC1F5A0410B4A0023AD
:101C60000144C2E900030839103A21F0070111606C
:101C70004B600B600B1AC0E9001393604FF00040FB
:101C80005360D06070470000C80500209C00002011
:101C9000FFF75AFFFCE700002DE9F047DDE9098472
:101CA0000E461746824691009946089DA522206B54
:101CB000FEF788FC6FF00301206B01EB87010844FD
:101CC00020F00707780705D040F22B3219A11EA09B
:101CD000FEF736FB00202218315C82F83410315CAC
:101CE00011B1401C1228F6D3002684F84560202D3F
:101CF00000D31F25E562C4E91456201D00F023FC23
:101D000004F1180000F01FFC2461C5F1200064629A
:101D1000A061A665E66584F860604A46514638468B
:101D200000F048FB2060B8F1000F01D0C8F8004077
:101D3000BDE8F0872E2E5C4672656552544F535CA9
:101D40007461736B732E63004572726F723A257300
:101D50002C25640D0A00000030B5114900E0114641
:101D60000A688242FBD34B685C18844203D1406806
:101D700018444860084643681C18944209D1084C2E
:101D8000103C2468A24209D052681A4442600A6892
:101D900012680260814200D0086030BD0460F9E73B
:101DA0009C00002070B5002441600B4D0061914201
:101DB00006D8D11A8269914206D2011D286907E02E
:101DC0009A4203D2994201D3012403E0011DE8683D
:101DD00000F0BCFB204670BD6C00002010B504462E
:101DE00000F0D8FBA06B20B1002400F00FFC2046CF
:101DF00010BD0124F9E72DE9F047814608689246B5
:101E00000C460025F8B1486801F1080640684860B2
:101E1000B04201D140684860D0F80C8060684268E8
:101E20006260B24201D151686160606805EBC50132
:101E300009EB8101C76853460122384600F014FDC2
:101E40006D1C4745EAD12846BDE8F0872DE9F341EE
:101E500000980F460026846C2CB940F6CE1216A1CD
:101E60001AA0FEF76DFAA06BE16B884205D340F62D
:101E7000CF1211A115A0FEF763FAA06BE16B8842A7
:101E80000CD294F945503A4669462046FFF799FE30
:101E90000646681C05D06D1C84F845503046BDE8E8
:101EA000FC81606A0028F9D004F1240001F0B6FB3F
:101EB0000028F3D00126F1E72E2E5C4672656552AC
:101EC000544F535C71756575652E63004572726F72
:101ED000723A25732C25640D0A000000F8B50546FA
:101EE00014480E46C068C068C468201D00F0ACFAF3
:101EF000E069012817D1A0692B46411932462046D6
:101F0000FFF750FF78B100200346014600902A46B3
:101F1000204601F0B5FC30B907494FF4027201F1D7
:101F20001800FEF70DFA616A01B02046BDE8F040E6
:101F3000084700006C000020E437000870B586B048
:101F40002F4E53E00198002806DADDE90301029ADA
:101F500090470198002849DB039C606910B1201D5F
:101F600000F072FA05A800F0A7F8054601980A28C3
:101F70003CD2DFE800F00505053B273805053B2787
:101F80000298A169034601442A462046FFF70AFF4A
:101F900000282BD0616A20468847E069012825D1B6
:101FA000002000900298A16900234218194620469B
:101FB00001F066FCD0B940F2213212A117A0FEF761
:101FC000BFF913E00298A06128B94FF44E720DA139
:101FD00012A0FEF7B5F9A0692B4641191A46204612
:101FE000FFF7E0FE02E0204600F042FB00231A4625
:101FF00001A9306800F076FF0028A3D106B070BDBB
:102000006C0000202E2E5C4672656552544F535C66
:1020100074696D6572732E63000000004572726F03
:10202000723A25732C25640D0A000000F8B50D46A0
:10203000064600F025FE684600F03EF8044600988B
:1020400010B101F037FBF8BD1148ADB10169096865
:10205000D9B10025311B2A46006800F0ADFB01F024
:1020600029FB0028EFD10B494FF080500860BFF3E7
:102070004F8FBFF36F8FF8BDA642EBD801F01AFB6C
:1020800021463046FFF72AFFF8BD0125E2E70000B0
:102090006C00002004ED00E00648C16B096829B11E
:1020A000C16BC968C9684968816270474FF0FF31E8
:1020B000FAE700002800002070B5054601F0DAF9C3
:1020C000064E0446B068844203D200F009F80120AD
:1020D00000E0002028602046B46070BD6C00002045
:1020E000F8B5184E26E0C068C4680568201D00F0E9
:1020F000ABF9616A20468847E06901281AD1A069D6
:102100002844A84206D924616060211DF06800F0CF
:102110001DFA0FE000200346014600902A462046A3
:1021200001F0AEFB30B9084940F2923201F11800DB
:10213000FEF706F9F06801680029D4D13169C6E9D3
:102140000310F8BD6C000020E4370008002101E016
:10215000401C491C0278A52AFAD0C1F38F007047B1
:1021600008484068401C05D040F20F1206A111A09B
:10217000FEF7E6F8502080F31188BFF34F8FBFF3CE
:102180006F8FFEE7800000202E2E5C467265655240
:10219000544F535C706F727461626C655C5256444C
:1021A000535C41524D5F434D34465C706F72742EE8
:1021B000630000004572726F723A25732C25640D1E
:1021C0000A000000084CE068016839B1002139B10B
:1021D0000020FFF72BFFFFF7B1FEF4E70121F6E740
:1021E000C0680068F5E700006C0000202DE9F041B0
:1021F000044600F0CFF994F9455004F1240610E0AC
:10220000A06C20B100212046FFF720FE04E0606AA8
:1022100048B1304601F002FA08B100F0B7FB6D1E7C
:102220006DB2002DECDC4FF0FF3684F8456000F015
:10223000EDF900F0AFF994F9445004F1100709E00A
:10224000206948B1384601F0E9F908B100F09EFB79
:102250006D1E6DB2002DF3DC84F84460BDE8F041E2
:1022600000F0D4B910B50446FEF724F92046FEF775
:1022700045F9202101E02154401C1128FBD3002105
:102280002154204410BD00002DE9F04105460026F0
:1022900000F0F6FC324F386808B9FFF7D3FCF86855
:1022A00005424FD1002D4DD0083568070BD005F001
:1022B0000700C0F108000544680704D0BF2229A127
:1022C00032A0FEF73DF8002D3CD07868854239D821
:1022D000234910310846046801E02146044660683D
:1022E000A84202D220680028F7D13868B846844254
:1022F00028D00E682068086060680836401B1028E7
:102300000ED96719780704D0EC2216A11FA0FEF79A
:1023100017F86068401B786038466560FFF71CFD61
:102320006168D8F804004246401AC8F80400D8F89A
:102330000830984200D29060D8F80C000143002089
:10234000C4E9000101F0B6F9700705D04FF49672A8
:1023500004A10EA0FDF7F4FF3046BDE8F0810000B7
:102360008C0000202E2E5C4672656552544F535CE3
:10237000706F727461626C655C4D656D4D616E6706
:102380005C686561705F342E630000004572726F97
:10239000723A25732C25640D0A0000000449086870
:1023A00018B10868426D521C426508687047000009
:1023B0002800002010B5031F4FF080741C601B1F05
:1023C00021F001011960191F044B0B6014390A60D8
:1023D000091F6FF0020244380A6010BD6121000835
:1023E00070B50C46064600F0D5F8154D2868C06D4E
:1023F00080B92968012081F860005CB10121204684
:10240000FFF7E2FA0F494FF080500860BFF34F8F9B
:10241000BFF36F8F00F0FAF800F0BCF82868C46DC5
:10242000002034B116B12968C86502E02A68611E2F
:10243000D165296881F8600000F0E8F8204670BD99
:102440002800002004ED00E0D0E9013201699A6023
:10245000D0E901235A604A68824201D182684A6009
:10246000002202610868401E0860704708B90248EF
:102470000068006BFFF76ABE280000202DE9F047D6
:1024800017460A4606460024202500F0F9FBDFF82F
:102490009080D8F8080082423CD3DFF888906D1E07
:1024A00005EB850104EBC40009EB810106EB80001C
:1024B0000122FFF7A0FC0444002DF0D104EBC4007E
:1024C00006EB800002224546D8F83C10FFF793FC4B
:1024D000044404EBC40006EB80000222296CFFF7E1
:1024E0008AFC044404EBC40006EB800004220E497D
:1024F000FFF781FC04440C4904EBC40006EB8000A8
:1025000003221431FFF777FC04441FB10748016828
:102510004068396001F0CEF82046BDE8F087000041
:1025200028000020BC0200207805002010000020B8
:1025300000F108014FF0FF32C0E90112C1600161F2
:1025400000210160704700210161704730B50C68BF
:10255000621C02D000F1080202E0026904E01A469F
:1025600053681D68A542FAD953684B6099608A6028
:10257000516008610168491C016030BD42684A60D1
:1025800093688B6093685960916008610168491C89
:1025900001607047502080F31188BFF34F8FBFF365
:1025A0006F8F09494868401C486001280AD10748D4
:1025B000006810F0FF0F05D040F2B91204A10FA07F
:1025C000FDF7BEBE704700008000002004ED00E073
:1025D0002E2E5C4672656552544F535C706F727458
:1025E00061626C655C525644535C41524D5F434D91
:1025F00034465C706F72742E630000004572726F17
:10260000723A25732C25640D0A00000010B5084CA1
:10261000606828B94FF4E07206A111A0FDF790FEA2
:102620006068401E606001D180F3118810BD000019
:10263000800000202E2E5C4672656552544F535C1C
:10264000706F727461626C655C525644535C4152A7
:102650004D5F434D34465C706F72742E6300000012
:102660004572726F723A25732C25640D0A000000C2
:1026700070B500282AD0164DA0F108046068E968FA
:10268000084205D14FF4A07212A11CA0FDF758FE1C
:10269000206828B140F241120EA118A0FDF750FEAB
:1026A0006068E968084211D02268002A0ED1884388
:1026B000606000F0E5FA6068696808446860204678
:1026C000FFF74AFBBDE8704000F0F4BF70BD0000AA
:1026D0008C0000202E2E5C4672656552544F535C70
:1026E000706F727461626C655C4D656D4D616E6793
:1026F0005C686561705F342E630000004572726F24
:10270000723A25732C25640D0A00000006484FF428
:102710007A710068B0FBF1F14FF0E020491E416191
:1027200007210161704700002400002010B5FDF76B
:10273000DDFD104C10280CD300F1E02090F8F003E0
:102740002178884205D24FF440720BA115A0FDF705
:10275000F7FD18480068A16800F4E060884207D9D6
:10276000BDE810404FF4447203A10EA0FDF7E8BD90
:1027700010BD0000800000202E2E5C467265655260
:10278000544F535C706F727461626C655C52564456
:10279000535C41524D5F434D34465C706F72742EF2
:1027A000630000004572726F723A25732C25640D28
:1027B0000A0000000CED00E070B515460E46044618
:1027C000FFF7E8FE94F944100020491C01D184F879
:1027D000440094F94510491C01D184F84500FFF7E5
:1027E00015FFA06B28B92A46314604F1240000F0F9
:1027F00067F92046BDE87040FFF7F8BC10B504004B
:1028000012D00E49096B29B140F2CF420CA111A0A0
:10281000FDF796FD00F034FA00212046FFF7D4F8CA
:1028200000F048FF002807D10E494FF080500860A3
:10283000BFF34F8FBFF36F8F10BD00002800002043
:102840002E2E5C4672656552544F535C7461736BF7
:10285000732E63004572726F723A25732C25640DD6
:102860000A00000004ED00E02DE9F0411E4690460C
:102870000C4607000ED0054605F13400C4E90050AF
:10288000E86A2061286BE061A86CA060207B0328C7
:1028900003D00AE010480568EEE700F0F1F9A86AF5
:1028A00008B10220207300F005FF286D6061A86D5B
:1028B000A061052E01D0267303E03846FFF72CF8FF
:1028C0002073B8F1000F03D0286BFFF73FFC00E046
:1028D00000202084BDE8F08128000020FEB50025FE
:1028E00006460570224881680191806800EBC000AF
:1028F0008000FFF7C9FC040038D002AA0199FFF755
:10290000BDFD019002986421B0FBF1F0029050B33C
:102910002846009524E000EBC00004EB8000029AFA
:102920008169B1FBF2F541683046FFF79BFC064632
:10293000009800EBC00004EB800082692DB12B46AB
:102940000CA13046FDF708FD03E00DA13046FDF770
:1029500003FD3046FDF7D2FD06440098401C009070
:1029600001998842D7D32046FFF782FEFEBD0000C2
:10297000280000200925750909257525250D0A005F
:1029800009257509093C3125250D0A000149012059
:10299000C8617047280000202DE9F04188460400F6
:1029A00005D141F2E31225A129A0FDF7C9FCFFF7EB
:1029B000BDFE5020EFF3118780F31188BFF34F8FD6
:1029C000BFF36F8F94F86000022184F86010E16D0E
:1029D000491CE16501282CD1A06A28B141F20922E5
:1029E00016A11BA0FDF7ACFC1D4D286B012678B18C
:1029F00004F118011B48FFF7C1FDE06A2968C96AA4
:102A0000884216D9B8F1000F12D0C8F8006010E063
:102A1000201DFFF719FDE06A2A6906FA00F111434B
:102A20002961114900EB800001EB8000211DE2E7E4
:102A3000EE6187F31188BDE8F08100002E2E5C4620
:102A400072656552544F535C7461736B732E6300EF
:102A50004572726F723A25732C25640D0A000000CE
:102A60002800002064050020BC02002070B50D463F
:102A7000040005D140F6063207A10CA0FDF760FC6A
:102A80000E48016820461831FFF760FD2846BDE872
:102A900070400121FEF798BF2E2E5C46726565528C
:102AA000544F535C7461736B732E63004572726F85
:102AB000723A25732C25640D0A00000028000020BE
:102AC00070B514460E46050005D140F6313209A115
:102AD0000DA0FDF735FC1048016828461831FFF7B6
:102AE0004DFD0CB14FF0FF3621463046BDE8704039
:102AF000FEF76ABF2E2E5C4672656552544F535CDA
:102B00007461736B732E63004572726F723A257332
:102B10002C25640D0A0000002800002070B5040078
:102B200039D01D4DE06A2968C96A884233D2A0694C
:102B3000002804DB2868C06AC0F12000A061E06AB8
:102B4000164E00EB8000616906EB800081421FD1C8
:102B5000201DFFF779FC012150B9E06A00EB8002EB
:102B600056F8222022B92A6901FA00F082432A612C
:102B70002868C06AE0622A6981401143296100EB3C
:102B8000800006EB8000211DBDE87040FFF7F6BC19
:102B90002868C06AE06270BD28000020BC020020E6
:102BA00010B5040005D140F6C13205A109A0FDF71A
:102BB000C7FB0C48016A2160C068606010BD00005E
:102BC0002E2E5C4672656552544F535C7461736B74
:102BD000732E63004572726F723A25732C25640D53
:102BE0000A000000280000201CB518480024CDE988
:102BF00000402346822216A1174800F001FC01285C
:102C000003D100F003FE01280AD0401C1DD102B000
:102C100040F28472BDE8104010A115A0FDF790BBF2
:102C2000502080F31188BFF34F8FBFF36F8F074899
:102C30004FF0FF312C38816201214161C460FDF702
:102C400077FFBDE81C4000F071B81CBD54000020A7
:102C500049444C4500000000911C00082E2E5C46A3
:102C600072656552544F535C7461736B732E6300CD
:102C70004572726F723A25732C25640D0A000000AC
:102C80000248016B491C01637047000028000020C6
:102C900070B51A4C206B10B10120E06170BD0020AE
:102CA000E061174908684968A063626B904204D9E3
:102CB0002168821A8B6D1A448A6560632069114EFF
:102CC000B0FA80F0C0F11F0000EB800556F8250037
:102CD00028B940F6F6220CA110A0FDF731FB06EB57
:102CE000850000F10802416849684160914201D1C4
:102CF00049684160C868206070BD0000280000205D
:102D000010000020BC0200202E2E5C467265655229
:102D1000544F535C7461736B732E63004572726F12
:102D2000723A25732C25640D0A0000001CB5304C46
:102D300020683049884205D140F259122EA139A0AD
:102D4000FDF7FEFA20682B49491E884205D14FF451
:102D5000AD7229A133A0FDF7F3FA364C207801902B
:102D6000FF20207020788DF800009DF800009DF86D
:102D7000001000F0F000884205D040F273121EA14E
:102D800028A0FDF7DDFA9DF800002B4A00F0500066
:102D900010700720906007E09068401E90609DF8DA
:102DA000000040008DF800009DF800000006F3D4FC
:102DB000107A000200F4E0609060019820700C48E6
:102DC0002030016841F470010160016841F07041F8
:102DD0000160FFF79BFC00205060FDF74FFA174899
:102DE000016841F040410160FDF738FA00201CBD48
:102DF00000ED00E071C20F412E2E5C4672656552F7
:102E0000544F535C706F727461626C655C525644CF
:102E1000535C41524D5F434D34465C706F72742E6B
:102E2000630000004572726F723A25732C25640DA1
:102E30000A00000000E400E08000002034EF00E021
:102E400010B5502080F31188BFF34F8FBFF36F8F01
:102E500000F016FB18B104494FF0805008600020C4
:102E600080F3118810BD000004ED00E02DE9F04171
:102E700017460E46050005D14FF4C47210A115A0E7
:102E8000FDF75EFABEB105FB06F05430FFF7FCF922
:102E900004000ED004F154007EB12060C4E90F5646
:102EA0002046012100F0E0F884F85070002120460F
:102EB000A164BDE8F0810020E7E72460EEE70000B0
:102EC0002E2E5C4672656552544F535C7175657564
:102ED000652E63004572726F723A25732C25640D5E
:102EE0000A0000002DE9FF4F83B09B468A4604008C
:102EF0004FF0000605D140F2DC4251A155A0FDF78C
:102F00001FFABAF1000F07D1206C28B140F2DD4260
:102F10004BA150A0FDF714FA00F09EFA38B90598BD
:102F200028B14FF49C6246A14AA0FDF709FA4FF080
:102F300000094FF08057DFF82C81FFF72BFBA56BC2
:102F400045B351462046E668FEF728FEBBF1000F68
:102F500013D0E660606A50B104F1240000F05EFB1B
:102F600028B1C8F80070BFF34F8FBFF36F8FFFF722
:102F70004DFB012007B0BDE8F08F6D1EA5632068F2
:102F800010B9FFF70BFA606020690028EFD004F158
:102F90001000E3E7059808B11EB106E0FFF736FB25
:102FA00027E06846FFF7FCFD0126FFF72FFBFFF740
:102FB00067FEFFF7EFFA94F94400401C01D184F852
:102FC000449094F94500401C01D184F84590FFF7E6
:102FD0001DFB05A9684600F0CFF9002820460AD05D
:102FE000FFF704F900F066FB2046FEF7F7FE002825
:102FF000A3D00020BEE7FEF7F1FED8B1206830B9BB
:10300000FFF7C8FA6068FFF789FDFFF7FFFA04F1E0
:1030100024000599FFF72AFD2046FFF7E7F800F0A6
:1030200049FB002889D1C8F80070BFF34F8FBFF368
:103030006F8F82E72046FFF7D9F800F03BFB7CE773
:103040002E2E5C4672656552544F535C71756575E2
:10305000652E63004572726F723A25732C25640DDC
:103060000A00000004ED00E070B50D46040005D133
:1030700040F21B121CA121A0FDF762F9FFF78AFAAA
:10308000D4E90F20216802FB001161600021A163D7
:103090002168A1600A46D4E90F01401E00FB01210E
:1030A000E16021464FF0FF3001F8440F487004F111
:1030B00010004DB1FFF73CFA04F12400FFF738FA95
:1030C000FFF7A4FA012070BD21690029F8D000F0B3
:1030D000A5FA0028F4D00D494FF080500860BFF3E6
:1030E0004F8FBFF36F8FEBE72E2E5C4672656552F4
:1030F000544F535C71756575652E63004572726F30
:10310000723A25732C25640D0A00000004ED00E0DE
:103110002DE9FF4F83B099468B4604004FF000061F
:1031200005D140F2D92252A156A0FDF709F9BBF111
:10313000000F07D1206C28B140F2DA224CA151A037
:10314000FDF7FEF8B9F1020F08D1E06B012805D0B8
:1031500040F2DB2246A14BA0FDF7F2F800F07CF92B
:1031600038B9059828B140F2DE2241A145A0FDF70B
:10317000E7F84FF0000A4FF08057DFF81881FFF7AB
:1031800009FAA06BE16B884206D3B9F1020F03D0B4
:10319000059800B316B325E04A4659462046FEF787
:1031A00010FDA16C21B149462046FEF74FFE05E017
:1031B000616A19B104F1240000F030FA28B1C8F8AE
:1031C0000070BFF34F8FBFF36F8FFFF71FFA01201F
:1031D00007B0BDE8F08FFFF719FA21E06846FFF766
:1031E000DFFC0126FFF712FAFFF74AFDFFF7D2F9DD
:1031F00094F94400401C01D184F844A094F945009E
:10320000401C01D184F845A0FFF700FA05A96846E3
:1032100000F0B2F830B12046FEF7E8FF00F04AFABD
:103220000020D5E7FFF7B6F9A06BE16B884201D12A
:10323000012500E00025FFF7E9F995B104F1100040
:103240000599FFF713FC2046FEF7D0FF00F032FA95
:10325000002894D1C8F80070BFF34F8FBFF36F8F71
:103260008DE72046FEF7C2FF00F024FA87E7000052
:103270002E2E5C4672656552544F535C71756575B0
:10328000652E63004572726F723A25732C25640DAA
:103290000A00000004ED00E02DE9F04798461546CD
:1032A0008946040005D140F29F322AA12EA0FDF7E5
:1032B00047F8B9F1000F07D1206C28B14FF46872BC
:1032C00024A129A0FDF73CF8B8F1020F08D1E06B6A
:1032D000012805D040F2A1321EA123A0FDF730F84D
:1032E000FFF724FA5020EFF3118780F31188BFF322
:1032F0004F8FBFF36F8FA06BE16B884207D3B8F19C
:10330000020F04D0002087F31188BDE8F08794F9FC
:103310004560424649462046FEF753FC701C04D0E7
:10332000761C84F845600120EDE7A06C012620B1F1
:1033300041462046FEF78AFD06E0606A0028F2D08A
:1033400004F1240000F06AF90028ECD0002DEAD046
:103350002E60E8E72E2E5C4672656552544F535C32
:1033600071756575652E63004572726F723A2573CB
:103370002C25640D0A00000070B50D46040005D12F
:1033800040F6CB3214A119A0FCF7DAFF2DB940F6B4
:10339000CC3211A115A0FCF7D3FFFFF7FBF8174AB9
:1033A000D06829684B1C0FD02368126A934202D060
:1033B000626882420AD96268801A884206D2081A74
:1033C00028602046FFF7ECFB002400E00124FFF713
:1033D0001DF9204670BD00002E2E5C4672656552B8
:1033E000544F535C7461736B732E63004572726F3C
:1033F000723A25732C25640D0A0000002800002075
:103400002DE9FF5F8346DDE90E87994616468A4619
:103410009000FEF739FF05001AD06420FEF734FF54
:10342000040012D025630021CDE90241CDE90087D7
:103430004B46324651465846FEF72EFC2046FEF7D4
:10344000FBFA012004B0BDE8F09F2846FFF710F911
:103450004FF0FF30F6E700000548416919B1006BF5
:1034600018B100207047012070470220704700000B
:10347000280000200148C068704700002800002094
:103480002DE9F0412D4F0026386B40B1B869401C42
:10349000B861F86900B101263046BDE8F081FD68E9
:1034A0006D1CFD6011D1F86B006828B140F6D9128F
:1034B00023A128A0FCF744FFF86B396CF96338644A
:1034C000386A401C3862FEF7E7FDB86ADFF894807E
:1034D000854209D3F86B006880B1F86BC068C46896
:1034E000606885420DD2B8623868C06A00EB80011E
:1034F00058F821000128CCD90126CAE74FF0FF3047
:10350000F1E7201DFEF7A0FFA06A18B104F1180032
:10351000FEF79AFFE06A01213A698140114339615F
:1035200000EB800108EB8100211DFFF727F8E06A1E
:103530003968C96A8842CDD30126CBE7280000202C
:103540002E2E5C4672656552544F535C7461736BEA
:10355000732E63004572726F723A25732C25640DC9
:103560000A000000BC02002070B504004FF0000605
:103570003CD01F4D2868844205D040F6C7621DA18B
:1035800021A0FCF7DDFE606D28B940F6C96219A1E3
:103590001DA0FCF7D5FE606D401E6065226DE16ADE
:1035A000914223D010BB201DFEF74EFF1A49012285
:1035B00050B9E06A00EB800351F8233023B92B693E
:1035C00002FA00F083432B61206DE062C0F120001D
:1035D000A061E06A2B6982401A432A6100EB8000F7
:1035E00001EB8000211DFEF7C9FF0126304670BDAA
:1035F000280000202E2E5C4672656552544F535CA5
:103600007461736B732E63004572726F723A257327
:103610002C25640D0A000000BC0200202DE9F041B9
:10362000C068C4682CB940F6613216A11AA0FCF734
:1036300087FE04F118000746FEF706FF1A4D286BB7
:10364000012660B139461948FEF798FFE06A2968FB
:10365000C96A884213D90120EE61BDE8F081201DBE
:10366000FEF7F2FEE06A2A6906FA00F111432961C9
:103670000F4900EB800001EB8000211DE4E70020F2
:10368000EBE700002E2E5C4672656552544F535C8A
:103690007461736B732E63004572726F723A257397
:1036A0002C25640D0A00000028000020640500207D
:1036B000BC0200202DE9F0472B4D00242746286B43
:1036C00028B94FF4FD6229A12DA0FCF739FEFEF7C1
:1036D00061FF286B401E2863286BE8BBA8682C4953
:1036E0000126C8B3A1F52A798846D8F80010E9B1B7
:1036F000D8F80C00C46804F11800FEF7A5FE201DE0
:10370000FEF7A2FEE06A2A6906FA00F11143296178
:1037100000EB800109EB8100211DFEF72FFFE06A1D
:103720002968C96A8842E0D3EE61DEE70CB1FEF792
:10373000B3FCAC693CB1FFF7A3FE00B1EE61641EBF
:10374000F9D10020A861E86930B112490127380792
:103750000860BFF34F8F00E001E0BFF36F8FFEF70B
:1037600055FF3846BDE8F087280000202E2E5C4625
:1037700072656552544F535C7461736B732E6300B2
:103780004572726F723A25732C25640D0A00000091
:103790006405002004ED00E02DE9F0470746994656
:1037A00016460D462C20DDF820A0FEF76DFD040026
:1037B00014D0B8464F46D1462DB94FF4C67209A170
:1037C0000EA0FCF7BDFDFEF79FF904F11801C4F847
:1037D000008081E8E002201DFEF7B5FE2046BDE82E
:1037E000F08700002E2E5C4672656552544F535C84
:1037F00074696D6572732E63000000004572726F0C
:10380000723A25732C25640D0A0000001CB50024B3
:10381000FEF77AF90C48006868B10B491F20091DB2
:10382000CDE9000100234FF4827208A10948FFF797
:10383000E7FD040005D140F2331207A10CA0FCF70C
:103840007FFD20461CBD00006C000020546D7220DE
:1038500053766300C52100082E2E5C4672656552C2
:10386000544F535C74696D6572732E6300000000E1
:103870004572726F723A25732C25640D0A000000A0
:103880002DE9FF47DDF830A0994690460D46060029
:103890004FF0000705D14FF4D37212A117A0FCF727
:1038A0004FFD1A4C206880B1CDE900580296062DD4
:1038B00011DAFFF7D1FD02284FF0000309D00022F2
:1038C00069462068FFF724FC074604B03846BDE887
:1038D000F0875246F4E700234A466946FFF7DCFCCE
:1038E000F2E700002E2E5C4672656552544F535C21
:1038F00074696D6572732E63000000004572726F0B
:10390000723A25732C25640D0A0000006C0000201B
:103910004FF04070E1EE100A704700003C3900089B
:1039200000000020A4000000C4010008E0390008E5
:10393000A4000020845B0000E001000800010001F9
:103940000000000000000000000000000000000077
:103950000000000001000000000000000000000066
:10396000007A030A000000000000000000000000D0
:103970000000000000000000000000000000000047
:103980000000000000000000000000000000000037
:103990000000000000000000000000000000000027
:1039A0000000000000000000000000000000000017
:1039B0000000000000000000000000000000000007
:1039C000AAAAAAAA0000000000000000000000004F
:1039D00000000000000000000000000000000000E7
:040000050800018965
:00000001FF
