:020000040800F2
:1000000070060020E1010008E5010008E701000892
:10001000E9010008EB010008ED0100080000000004
:10002000000000000000000000000000EF010008D8
:10003000F101000800000000F3010008F5010008CC
:10004000F7010008F7010008F7010008F7010008B0
:10005000F7010008F7010008E3080008110900088B
:100060003F0900085F090008F7010008F7010008D0
:10007000F7010008F7010008F7010008F701000880
:10008000F7010008F7010008F7010008F701000870
:10009000F7010008F7010008F7010008F701000860
:1000A000F7010008F7010008F7010008F701000850
:1000B000F7010008F7010008270B0008F701000806
:1000C000F7010008F7010008F7010008F701000830
:1000D000F7010008F7010008F7010008F701000820
:1000E000F7010008F7010008F7010008F701000810
:1000F000F7010008F7010008F7010008F701000800
:10010000F7010008F7010008F7010008F7010008EF
:10011000F7010008F701000825070008F7010008AB
:10012000F7010008F7010008F7010008F7010008CF
:1001300000F002F800F03FF80AA090E8000C8244BA
:100140008344AAF10107DA4501D100F034F8AFF297
:10015000090EBAE80F0013F0010F18BFFB1A43F0A5
:1001600001031847D8110000F8110000103A24BF0D
:1001700078C878C1FAD8520724BF30C830C144BF0C
:1001800004680C607047000000230024002500264E
:10019000103A28BF78C1FBD8520728BF30C148BFEA
:1001A0000B607047642900F02B85002070471FB555
:1001B0001FBD10B510BD00F0EBFD1146FFF7F7FFB6
:1001C00000F02AF800F009FE03B4FFF7F2FF03BCC9
:1001D00000F0F0F930BF72B662B680F3088870475D
:1001E00008480047FEE7FEE7FEE7FEE7FEE7FEE71A
:1001F000FEE7FEE7FEE7FEE703480449044A054B35
:1002000070470000310100087000002070060020D7
:10021000700200207002002000F03EFA0AE006485A
:10022000007838B10020044908700448018804A00F
:1002300000F0A6FCF3E70000080000200E000020FC
:1002400025640D0A000000004FF0E021096921F04B
:1002500004014FF0E0221161C21700EB5272C2F3A9
:10026000C702234B1A701946097801EB4102C2EB11
:10027000C1114FF6FF7202EAC1011E4A1180704798
:1002800001461B4A12784A434FF0E0235A6100228C
:100290009A6101221A6100BF4FF0E022106900F05C
:1002A00001021AB100F48032002AF5D000224FF08A
:1002B000E0231A619A61704701460E4A12884A4348
:1002C0004FF0E0235A6100229A6101221A6100BFB7
:1002D0004FF0E022106900F001021AB100F4803200
:1002E000002AF5D000224FF0E0231A619A6170478E
:1002F0000000002002000020A34A0A400243A34B52
:100300001A6070470146072323EA010212029F4B3D
:100310001B1D18684FF6FF0318409D4B18431043F0
:100320009A4B1B1D186070472DE9F041074688461F
:1003300014461D462846FFF7E5FFC5F1040007FAFD
:1003400000F60F20284100EA0800064306F00F06D9
:10035000E21704EBD2625211920002F1E022D2F8CD
:1003600000212146E31704EBD3635B11A4EB431C8C
:10037000012303FA0CF31A432046E31704EBD3637B
:100380005B119B0003F1E023C3F800218148005D6D
:1003900040EA06107F490855BDE8F08170B5044673
:1003A0000B46CE1701EB9676C6F38700CE1701EB0E
:1003B0009676B610A1EB8606B606350E764B9B698F
:1003C00043F00103744EB3614FEAB63353F8203063
:1003D0000F26AE40B343714E46F82030334653F8F3
:1003E000203004FA05F61E436C4B43F820606C4B3A
:1003F0001B6801268E403343694E336002F00103CF
:1004000043B1674B0C331B6801268E403343644E67
:100410000C36336002F0020343B1614B08331E68AF
:1004200001238B401E435E4B08331E6070BD00B538
:10043000002059490861C860142048610020886183
:10044000C8610846006840F001000860084640683E
:1004500054490840504948600846006852490840DD
:100460004D4908600846006820F48020086008466E
:10047000406820F4FE0048600020886000214FF0B2
:100480000060FFF739FF00BD10B540480830006834
:1004900040F004003D49083108603F48C06940F021
:1004A00080503D49C8614148406840F480703F49F0
:1004B00048600846006840F004000860084600688C
:1004C00040F002000860FFF785FE10BD3048001DB7
:1004D0002E49091D08607047014649062E4A926957
:1004E00042F001022C4B9A612C4A083A526822F0E1
:1004F00070622A4B083B5A601A4652680A435A6097
:10050000704730B504460025FFF791FF2248006888
:1005100040F480302049086000BF1F480068400C4C
:100520000028FAD04FF480601B494860A01EC4B276
:100530000846406840EA844048600846406840F405
:10054000803048601A48006840F03200184908605E
:100550001148006840F080700F49086000BF0E48E5
:100560000068400E0028FAD00B48406840F00200B6
:100570000949486005E008484068C0F3870505F070
:100580000305022DF7D130BD80FFFF1F08ED00E00D
:100590000000FA0500E400E00010024008000140FD
:1005A000000401400000FFF8FFFFF6FE007000406D
:1005B00000200240014600BF704700BF324A128847
:1005C00002F04002002AF9D0C2B22F4B1B1D1A8044
:1005D00070472DE9F05F05460E46300100F04EFDF4
:1005E00081462A4905FB01F000F048FD8246494654
:1005F00000F062FC0746384600F020FD84B2204639
:1006000000F03CFD8346394600F018FE82464FF06C
:10061000834100F047FD814600F010FD80464FF613
:10062000FF7000EA041404EB080084B218488069E3
:1006300040F00400164988610846806940F4804013
:1006400088611448006820F47F60124908600846F9
:10065000006840F40B6008600D48C06840F48040BA
:100660000B49C8600846C06820F48040C86006484E
:1006700008300480001D008842F20C010843024942
:100680000C310880BDE8F09F0038014040420F0067
:10069000001002400408014010B50920FFF731FFA7
:1006A0004820FFF7D1FD4FF4E1314820FFF791FFDB
:1006B00000F066F800F094F800F0E5F8132141F638
:1006C0001F4000F00DF817214EF65F2000F066F98C
:1006D00040F2CF214FF6FF7000F0C8F910BD70470F
:1006E00070B505460C462048C06940F010001E4910
:1006F000C8611E4885850485808940F001001B493A
:1007000088810846008840F08000088008460088FC
:1007100040F0010008800223362219460320FFF72B
:1007200003FE70BD1148008A00F00100A0B1012055
:100730000F4908700F480088401C0E490880084681
:100740000088B0F5FA7F07DB002008800A480068BF
:10075000C0430A49C1F888010448008A20F001001A
:10076000024908827047000000100240001000405B
:10077000080000200A0000208881224200802242D6
:100780007F48806940F010007D4988617D4800689D
:1007900020F470607B4908600846006840F44070AF
:1007A00008600846C06840F00400C860744880696A
:1007B00040F02000724988617348006820F470603E
:1007C000714908600846006840F4407008606E484F
:1007D0000C30006840F004006B490C310860704731
:1007E0006748806940F0040065498861674800688F
:1007F0006FF30F00654908600846006848F68801F5
:1008000008436249086061480C30006840F002000B
:100810005E490C3108600846006840F0040008603A
:100820000846006840F008000860704710B5584856
:10083000006801280BD05648001D006838B15448A4
:100840000830006818B152480C300068C8B905205B
:10085000FFF732FD4E480068012800D110BD4C481A
:10086000001D006808B90220F8E749480830006810
:1008700008B90320F2E746480C30006808B90420A4
:10088000ECE70020EAE710B5022200210846FFF756
:1008900085FD012211460020FFF780FD0122022183
:1008A0000020FFF77BFD012203210020FFF776FDEA
:1008B0000223062200211846FFF736FD02230722F5
:1008C00001211846FFF730FD0223082201211846B6
:1008D000FFF72AFD0223092201211846FFF724FD14
:1008E00010BD002000BF01E0411C88B24FF6FF712F
:1008F0008842F9DB26490968012905D141F288318E
:10090000244A1180121D11800121234A1160704771
:10091000002000BF01E0411C88B24FF6FF71884201
:10092000F9DB1B49091D096829B941F2CC01194AB3
:100930001180121D11800221174A1160704700209A
:1009400000BF01E0411C88B24FF6FF718842F9DB1D
:100950000F490831096804210F4A116070470020CF
:1009600000BF01E0411C88B24FF6FF718842F9DBFD
:1009700007490C3109680821074A116070470000D7
:100980000010024000100140001401400008014026
:100990000001214234040040140401402F4AD2696E
:1009A00042F002022D4BDA611A46926942F00402CB
:1009B0009A611A46926942F008029A61284A1268BE
:1009C00022F07F42264B1A601A46126842F03B42E0
:1009D0001A60244A126822F0FF02224B1A601A465B
:1009E000126842F0BB021A601F4A1080121F118069
:1009F0001D4A143A128842F068021B4B143B1A80BD
:100A00001A46128842F4D0421A801A1D128842F007
:100A100068021B1D1A801A46128842F4D0421A80BE
:100A20001A1D128841F211131A430F4B0C3B1A8006
:100A300080220D4B2C3B1A801A46128842F001028C
:100A40001A8040F6B832084B08331A801B1D1A80F2
:100A50001B1D1A801B1D1A807047000000100240E9
:100A600000080140000C01402C04004070B5044611
:100A70000D463C48C06940F004003A49C861084648
:100A8000806940F0080088613748006820F07F40A6
:100A9000354908600846006840F008400860081DB5
:100AA000006820F0FF00091D08600846006840F05B
:100AB000880008602D480480001F05802B481438EA
:100AC000008840F001002949143908800846008850
:100AD00008800846008840F01000088023480C3841
:100AE000008840F0010021490C3908800846008840
:100AF00008801E482038008840F01E001B4920391D
:100B0000088008460088088018482C38008840F083
:100B1000010016492C39088002231E2200210846B4
:100B2000FFF702FC70BD11491C39088800F0020172
:100B300059B10E49083109880D4A118000210B4A2C
:100B4000083A1180094A0832118009490988094A7E
:100B500092FBF1F1084A11800021044A1C3A1180ED
:100B60007047000000100240000C01402C080040BB
:100B70000C000020A08601000E000020704700003D
:100B80000FB4044910B503AA029800F0D3F810BCC2
:100B90005DF814FB040000202DE9F0410E460446E8
:100BA000002020622046E168884730B3252805D020
:100BB000D4E901219047206A401CF2E7E168204611
:100BC00000278847050018D0A5F14100192802D850
:100BD00020354FF400673246294620462760FFF74C
:100BE000E1FA40B1012804D0F61D26F007060836C8
:100BF000D8E7361DD6E72846DAE7206ABDE8F08157
:100C00002DE9F0410646002410687529314616A5E5
:100C100010D0AFF30080002802DA404213A507E0AD
:100C200031688A0701D512A502E0490704D511A54C
:100C3000012401E0AFF3008000210A2206F124071D
:100C400009E0B0FBF2FCB0FBF2F302FB1C00303019
:100C500078541846491C0028F3D123462A463046CA
:100C6000BDE8F04100F00CB8000000002D000000CD
:100C70002B0000002000000070477047704770474D
:100C80002DE9F0470D4699469246044600F12408A6
:100C90000168880604D5E06921F01001216000E0B8
:100CA0000120A84201DD471B00E00027A1697A1955
:100CB00002EB0900081AA0612078C00602D4204681
:100CC000AFF30080002608E0D4E901211AF80600FD
:100CD0009047206A401C761C20624E45F4DB207849
:100CE000C0060AD52046AFF3008006E0D4E9012112
:100CF00030209047206A401C2062381EA7F101076F
:100D0000F4DC07E0D4E9012118F805009047206AD7
:100D1000401C2062281EA5F10105F3DC2046AFF33C
:100D200000802078000602D50220BDE8F08701206F
:100D3000FBE70000074B70B50D467B4400F011F84F
:100D40000446284600F020F810B14FF0FF3070BD87
:100D5000204670BD7DF8FFFF01694A1C02610878DA
:100D6000704700B58FB0CDE90131002105910549EB
:100D70007944CDE9031011466846FFF70DFF0FB027
:100D800000BD0000E5FFFFFF007B00F08000704722
:100D9000754600F02BF8AE4605006946534620F034
:100DA0000700854618B020B5FFF726FABDE82040B9
:100DB0004FF000064FF000074FF000084FF0000B17
:100DC00021F00701AC46ACE8C009ACE8C009ACE8CA
:100DD000C009ACE8C0098D46704710B50446AFF3B2
:100DE00000802046BDE81040FFF7EEB9004870478C
:100DF0001000002090EA010F48BF81F0004100F18F
:100E00002E82421A3CBF801A89184FEAD0524FF006
:100E10007F4C1CEA410FA2EBD15318BF9CEA026F32
:100E200000F03B804FF0004C4CEA00204CEA0121DE
:100E300021FA03FC10EB0C0C1ED202F1FF325FEA28
:100E40001C2040EBC25038BF70471CF07F0F4FEAA8
:100E5000400C18BFBCF17F4F38BF7047C3F120036F
:100E6000994008BF20F00100BCF17F4F38BF7047A8
:100E7000A0F1C04000F0DDB94FEA3C00000A40EBB1
:100E8000C25028BF1CF0FF0F4FEA400CE6D018BF3D
:100E9000BCF17F4F38BF7047EAE79CEA026F05D08C
:100EA00010EA5C0F08BF00F00040704710B500F07A
:100EB0007AF900BF64FBBE3E4FF47F0C1CEAD012EF
:100EC0001EBF1CEAD11392EA0C0F93EA0C0F00F03C
:100ED000858090EA010F48BF42F4807240F4000C14
:100EE00041F400002CF07F4120F07F4000B58142AA
:100EF000A2EB03020FF2081CACEB504EC0F1000055
:100F00009EF800E04FEA4E0E00FB0EFC38BF490091
:100F10004FEA2C1C02F5FA020CFB0EF34FEACE1E30
:100F20004FEA112C4FEAC1210EEB635E42EB2242E5
:100F30000EFB0CFC4FEA1C5300FB03114FEA112C73
:100F40004FEA01310EFB0CFC4FEADC4C00FB0C11AC
:100F5000C14228BF09184CEB03335DF804EB10EBDA
:100F6000410143EBC250B2F57C0F38BF704729D521
:100F700012F0F00F1CBF00F1C04000F000407047BD
:100F8000008182838485868788898B8C8D8E8F9162
:100F90009293959697999A9C9D9FA0A2A3A5A7A886
:100FA000AAACAEB0B2B3B5B7B9BCBEC0C2C5C7C9B2
:100FB000CCCED1D4D7D9DCDFE2E6E9ECF0F3F7FA16
:100FC000FE0000004FEA400C0CF1807CBCF17E4F2B
:100FD00028BF7047B0F1C04000F02BB990EA010F74
:100FE0000CEAD11348BF42F48072624538BF6345B2
:100FF00007D213F47F0F16D080EA010000F0004002
:10100000704710B500F0CFF8097EFC3E00F005B83F
:1010100080EA010000F00040704780EA010000F023
:10102000004000F006B912F47F0F04BF0248704779
:1010300080EA010000F0FDB80000C07FC10DD1F1D1
:101040009E0206DB4FEA002343F0004323FA02F03E
:101050007047004207D54FEA4001B1F1FE4F02D27E
:101060004FF00000704710B500F09DF849922480C1
:10107000002070476FEA200070470000B0FA80F34C
:1010800010FA03F2C3F19D030AD0D90501EB122037
:10109000530638BF704700F1010008BF20F001007F
:1010A000704700004FF47F0C1CEAD0121EBF1CEAF0
:1010B000D11392EA0C0F93EA0C0F00F0478090EAEC
:1010C000010F48BF42F480724FF0004C4CEA002000
:1010D0004CEA012102EB0302A0FB0113A2F500027E
:1010E000002918BF43F001035B0028BF4FEA330318
:1010F00042EB22425FEA132C4CEBC2502EBFBCEBFA
:10110000436FB2F57C0F70474FEA036CBCF1004FA0
:1011100008BF20F00100B2F57C0F38BF70470BD537
:1011200082F0FF0212F5803FC8BF704700F1C04057
:10113000D8BF00F00040704700F5000C5FEA4C0C8F
:1011400048BF7047B0F1C04000F073B890EA010F9B
:101150000CEAD11348BF42F48072624538BF634540
:1011600004D280EA010000F00040704710B500F0A2
:101170001AF800BF8900013E00F007B800F009B876
:101180005FEA410C5FEA1C6C08D080EA010000F0C5
:1011900050B85FEA400C5FEA1C6CF6D14FF000409B
:1011A000A0F5800070470EF1020E2EF0030E5EF8DF
:1011B000044B244204D44FEA4102B2F17F4F11D8CC
:1011C0004FEA4003B3F17F4F0CD80ED14FEAD07CE9
:1011D000B2F17F4F0CEB4C0C0CF1020C08BF4CEB46
:1011E000D17C04E04FF0080C01E04FEAD17C0CEB1D
:1011F0004C0324FA03F404F00704B4F1040C06D2FF
:101200000EEB840CBDE810404CF0010C6047DFE8A9
:101210000CF0070802024FF00040A0F5800010BD5E
:101220000846420018BFD2F1807288BF00F000402B
:1012300010BDFF2141EAD050C005704780F000404A
:1012400090EA010F7FF5DDAD81F0004100F007B8B5
:1012500090EA010F48BF81F000413FF5D2AD421A3C
:1012600004D882F00042A0EB020011444FEAD052B1
:101270004FF07F4C1CEA410FA2EBD15318BF9CEA00
:10128000026F4AD04FF0004C4CEA00204CEA01219A
:1012900021FA03FCB0EB0C0C0FD412F0FE0F36D089
:1012A0005FEA4C001DD5001240EBC25038BF7047BA
:1012B0001CF03F0F18BF70470BE0A2F101025FEA7C
:1012C0001C2040EBC25038BF70471CF07F0F18BF86
:1012D0007047C3F12003994014BF401E20F0010065
:1012E000704780084FEA122308BF7047B0FA80FCAD
:1012F000A2EB0C02CCF1280C60FA0CF093EA122F4E
:1013000004BF00EBC25070474FEAC3707047130A26
:101310005FEADC1008BF7047F6E79CEA026F04D072
:1013200010EA5C0F08BF0020704710B5FFF73BFFC5
:1013300040DFF63E81F00040704700005C1300087B
:1013400000000020100000006C0100086C13000871
:101350001000002060060000880100080000000066
:0C13600000000000000000000000000081
:0400000508000131BD
:00000001FF
